{
	"Contracts/FundMe.sol": {
		"FundME": {
			"abi": [
				{
					"inputs": [],
					"stateMutability": "nonpayable",
					"type": "constructor"
				},
				{
					"inputs": [
						{
							"internalType": "address",
							"name": "",
							"type": "address"
						}
					],
					"name": "addressToAmountFunded",
					"outputs": [
						{
							"internalType": "uint256",
							"name": "",
							"type": "uint256"
						}
					],
					"stateMutability": "view",
					"type": "function"
				},
				{
					"inputs": [],
					"name": "fund",
					"outputs": [],
					"stateMutability": "payable",
					"type": "function"
				},
				{
					"inputs": [
						{
							"internalType": "uint256",
							"name": "",
							"type": "uint256"
						}
					],
					"name": "funders",
					"outputs": [
						{
							"internalType": "address",
							"name": "",
							"type": "address"
						}
					],
					"stateMutability": "view",
					"type": "function"
				},
				{
					"inputs": [],
					"name": "minimumUSD",
					"outputs": [
						{
							"internalType": "uint256",
							"name": "",
							"type": "uint256"
						}
					],
					"stateMutability": "view",
					"type": "function"
				},
				{
					"inputs": [],
					"name": "owner",
					"outputs": [
						{
							"internalType": "address",
							"name": "",
							"type": "address"
						}
					],
					"stateMutability": "view",
					"type": "function"
				},
				{
					"inputs": [],
					"name": "withdrawFund",
					"outputs": [],
					"stateMutability": "nonpayable",
					"type": "function"
				}
			],
			"devdoc": {
				"kind": "dev",
				"methods": {},
				"version": 1
			},
			"evm": {
				"assembly": "    /* \"Contracts/FundMe.sol\":94:1382  contract FundME {... */\n  mstore(0x40, 0x80)\n    /* \"Contracts/FundMe.sol\":180:189  50 * 1e18 */\n  0x02b5e3af16b1880000\n    /* \"Contracts/FundMe.sol\":155:189  uint public minimumUSD = 50 * 1e18 */\n  0x00\n  sstore\n    /* \"Contracts/FundMe.sol\":316:366  constructor(){... */\n  callvalue\n  dup1\n  iszero\n  tag_1\n  jumpi\n  0x00\n  dup1\n  revert\ntag_1:\n  pop\n    /* \"Contracts/FundMe.sol\":348:358  msg.sender */\n  caller\n    /* \"Contracts/FundMe.sol\":340:345  owner */\n  0x03\n  0x00\n    /* \"Contracts/FundMe.sol\":340:358  owner = msg.sender */\n  0x0100\n  exp\n  dup2\n  sload\n  dup2\n  0xffffffffffffffffffffffffffffffffffffffff\n  mul\n  not\n  and\n  swap1\n  dup4\n  0xffffffffffffffffffffffffffffffffffffffff\n  and\n  mul\n  or\n  swap1\n  sstore\n  pop\n    /* \"Contracts/FundMe.sol\":94:1382  contract FundME {... */\n  dataSize(sub_0)\n  dup1\n  dataOffset(sub_0)\n  0x00\n  codecopy\n  0x00\n  return\nstop\n\nsub_0: assembly {\n        /* \"Contracts/FundMe.sol\":94:1382  contract FundME {... */\n      mstore(0x40, 0x80)\n      jumpi(tag_1, lt(calldatasize, 0x04))\n      shr(0xe0, calldataload(0x00))\n      dup1\n      0x3430a88c\n      eq\n      tag_2\n      jumpi\n      dup1\n      0x3e47d6f3\n      eq\n      tag_3\n      jumpi\n      dup1\n      0x8da5cb5b\n      eq\n      tag_4\n      jumpi\n      dup1\n      0xb60d4288\n      eq\n      tag_5\n      jumpi\n      dup1\n      0xdc0d3dff\n      eq\n      tag_6\n      jumpi\n      dup1\n      0xe07fa3c1\n      eq\n      tag_7\n      jumpi\n    tag_1:\n      0x00\n      dup1\n      revert\n        /* \"Contracts/FundMe.sol\":155:189  uint public minimumUSD = 50 * 1e18 */\n    tag_2:\n      callvalue\n      dup1\n      iszero\n      tag_8\n      jumpi\n      0x00\n      dup1\n      revert\n    tag_8:\n      pop\n      tag_9\n      tag_10\n      jump\t// in\n    tag_9:\n      mload(0x40)\n      tag_11\n      swap2\n      swap1\n      tag_12\n      jump\t// in\n    tag_11:\n      mload(0x40)\n      dup1\n      swap2\n      sub\n      swap1\n      return\n        /* \"Contracts/FundMe.sol\":229:282  mapping(address => uint) public addressToAmountFunded */\n    tag_3:\n      callvalue\n      dup1\n      iszero\n      tag_13\n      jumpi\n      0x00\n      dup1\n      revert\n    tag_13:\n      pop\n      tag_14\n      0x04\n      dup1\n      calldatasize\n      sub\n      dup2\n      add\n      swap1\n      tag_15\n      swap2\n      swap1\n      tag_16\n      jump\t// in\n    tag_15:\n      tag_17\n      jump\t// in\n    tag_14:\n      mload(0x40)\n      tag_18\n      swap2\n      swap1\n      tag_12\n      jump\t// in\n    tag_18:\n      mload(0x40)\n      dup1\n      swap2\n      sub\n      swap1\n      return\n        /* \"Contracts/FundMe.sol\":287:307  address public owner */\n    tag_4:\n      callvalue\n      dup1\n      iszero\n      tag_19\n      jumpi\n      0x00\n      dup1\n      revert\n    tag_19:\n      pop\n      tag_20\n      tag_21\n      jump\t// in\n    tag_20:\n      mload(0x40)\n      tag_22\n      swap2\n      swap1\n      tag_23\n      jump\t// in\n    tag_22:\n      mload(0x40)\n      dup1\n      swap2\n      sub\n      swap1\n      return\n        /* \"Contracts/FundMe.sol\":413:689  function fund() public payable {... */\n    tag_5:\n      tag_24\n      tag_25\n      jump\t// in\n    tag_24:\n      stop\n        /* \"Contracts/FundMe.sol\":198:222  address[] public funders */\n    tag_6:\n      callvalue\n      dup1\n      iszero\n      tag_26\n      jumpi\n      0x00\n      dup1\n      revert\n    tag_26:\n      pop\n      tag_27\n      0x04\n      dup1\n      calldatasize\n      sub\n      dup2\n      add\n      swap1\n      tag_28\n      swap2\n      swap1\n      tag_29\n      jump\t// in\n    tag_28:\n      tag_30\n      jump\t// in\n    tag_27:\n      mload(0x40)\n      tag_31\n      swap2\n      swap1\n      tag_23\n      jump\t// in\n    tag_31:\n      mload(0x40)\n      dup1\n      swap2\n      sub\n      swap1\n      return\n        /* \"Contracts/FundMe.sol\":768:1270  function withdrawFund() public onlyOwner {... */\n    tag_7:\n      callvalue\n      dup1\n      iszero\n      tag_32\n      jumpi\n      0x00\n      dup1\n      revert\n    tag_32:\n      pop\n      tag_33\n      tag_34\n      jump\t// in\n    tag_33:\n      stop\n        /* \"Contracts/FundMe.sol\":155:189  uint public minimumUSD = 50 * 1e18 */\n    tag_10:\n      sload(0x00)\n      dup2\n      jump\t// out\n        /* \"Contracts/FundMe.sol\":229:282  mapping(address => uint) public addressToAmountFunded */\n    tag_17:\n      mstore(0x20, 0x02)\n      dup1\n      0x00\n      mstore\n      keccak256(0x00, 0x40)\n      0x00\n      swap2\n      pop\n      swap1\n      pop\n      sload\n      dup2\n      jump\t// out\n        /* \"Contracts/FundMe.sol\":287:307  address public owner */\n    tag_21:\n      0x03\n      0x00\n      swap1\n      sload\n      swap1\n      0x0100\n      exp\n      swap1\n      div\n      0xffffffffffffffffffffffffffffffffffffffff\n      and\n      dup2\n      jump\t// out\n        /* \"Contracts/FundMe.sol\":413:689  function fund() public payable {... */\n    tag_25:\n        /* \"Contracts/FundMe.sol\":551:561  minimumUSD */\n      sload(0x00)\n        /* \"Contracts/FundMe.sol\":521:547  msg.value.conversionRate() */\n      tag_36\n        /* \"Contracts/FundMe.sol\":521:530  msg.value */\n      callvalue\n        /* \"Contracts/FundMe.sol\":521:545  msg.value.conversionRate */\n      tag_37\n        /* \"Contracts/FundMe.sol\":521:547  msg.value.conversionRate() */\n      jump\t// in\n    tag_36:\n        /* \"Contracts/FundMe.sol\":521:561  msg.value.conversionRate() >= minimumUSD */\n      lt\n      iszero\n        /* \"Contracts/FundMe.sol\":512:590  require (msg.value.conversionRate() >= minimumUSD, \"Didn't send enough ether\") */\n      tag_38\n      jumpi\n      mload(0x40)\n      0x08c379a000000000000000000000000000000000000000000000000000000000\n      dup2\n      mstore\n      0x04\n      add\n      tag_39\n      swap1\n      tag_40\n      jump\t// in\n    tag_39:\n      mload(0x40)\n      dup1\n      swap2\n      sub\n      swap1\n      revert\n    tag_38:\n        /* \"Contracts/FundMe.sol\":601:608  funders */\n      0x01\n        /* \"Contracts/FundMe.sol\":614:624  msg.sender */\n      caller\n        /* \"Contracts/FundMe.sol\":601:625  funders.push(msg.sender) */\n      swap1\n      dup1\n      0x01\n      dup2\n      sload\n      add\n      dup1\n      dup3\n      sstore\n      dup1\n      swap2\n      pop\n      pop\n      0x01\n      swap1\n      sub\n      swap1\n      0x00\n      mstore\n      keccak256(0x00, 0x20)\n      add\n      0x00\n      swap1\n      swap2\n      swap1\n      swap2\n      swap1\n      swap2\n      0x0100\n      exp\n      dup2\n      sload\n      dup2\n      0xffffffffffffffffffffffffffffffffffffffff\n      mul\n      not\n      and\n      swap1\n      dup4\n      0xffffffffffffffffffffffffffffffffffffffff\n      and\n      mul\n      or\n      swap1\n      sstore\n      pop\n        /* \"Contracts/FundMe.sol\":672:681  msg.value */\n      callvalue\n        /* \"Contracts/FundMe.sol\":636:657  addressToAmountFunded */\n      0x02\n        /* \"Contracts/FundMe.sol\":636:669  addressToAmountFunded[msg.sender] */\n      0x00\n        /* \"Contracts/FundMe.sol\":658:668  msg.sender */\n      caller\n        /* \"Contracts/FundMe.sol\":636:669  addressToAmountFunded[msg.sender] */\n      0xffffffffffffffffffffffffffffffffffffffff\n      and\n      0xffffffffffffffffffffffffffffffffffffffff\n      and\n      dup2\n      mstore\n      0x20\n      add\n      swap1\n      dup2\n      mstore\n      0x20\n      add\n      0x00\n      keccak256\n        /* \"Contracts/FundMe.sol\":636:681  addressToAmountFunded[msg.sender] = msg.value */\n      dup2\n      swap1\n      sstore\n      pop\n        /* \"Contracts/FundMe.sol\":413:689  function fund() public payable {... */\n      jump\t// out\n        /* \"Contracts/FundMe.sol\":198:222  address[] public funders */\n    tag_30:\n      0x01\n      dup2\n      dup2\n      sload\n      dup2\n      lt\n      tag_42\n      jumpi\n      0x00\n      dup1\n      revert\n    tag_42:\n      swap1\n      0x00\n      mstore\n      keccak256(0x00, 0x20)\n      add\n      0x00\n      swap2\n      pop\n      sload\n      swap1\n      0x0100\n      exp\n      swap1\n      div\n      0xffffffffffffffffffffffffffffffffffffffff\n      and\n      dup2\n      jump\t// out\n        /* \"Contracts/FundMe.sol\":768:1270  function withdrawFund() public onlyOwner {... */\n    tag_34:\n        /* \"Contracts/FundMe.sol\":1330:1335  owner */\n      0x03\n      0x00\n      swap1\n      sload\n      swap1\n      0x0100\n      exp\n      swap1\n      div\n      0xffffffffffffffffffffffffffffffffffffffff\n      and\n        /* \"Contracts/FundMe.sol\":1316:1335  msg.sender == owner */\n      0xffffffffffffffffffffffffffffffffffffffff\n      and\n        /* \"Contracts/FundMe.sol\":1316:1326  msg.sender */\n      caller\n        /* \"Contracts/FundMe.sol\":1316:1335  msg.sender == owner */\n      0xffffffffffffffffffffffffffffffffffffffff\n      and\n      eq\n        /* \"Contracts/FundMe.sol\":1308:1359  require(msg.sender == owner, \"Sender is not owner\") */\n      tag_45\n      jumpi\n      mload(0x40)\n      0x08c379a000000000000000000000000000000000000000000000000000000000\n      dup2\n      mstore\n      0x04\n      add\n      tag_46\n      swap1\n      tag_47\n      jump\t// in\n    tag_46:\n      mload(0x40)\n      dup1\n      swap2\n      sub\n      swap1\n      revert\n    tag_45:\n        /* \"Contracts/FundMe.sol\":824:840  uint funderIndex */\n      0x00\n        /* \"Contracts/FundMe.sol\":820:1002  for(uint funderIndex = 0; funderIndex < funders.length; funderIndex++){... */\n    tag_49:\n        /* \"Contracts/FundMe.sol\":860:867  funders */\n      0x01\n        /* \"Contracts/FundMe.sol\":860:874  funders.length */\n      dup1\n      sload\n      swap1\n      pop\n        /* \"Contracts/FundMe.sol\":846:857  funderIndex */\n      dup2\n        /* \"Contracts/FundMe.sol\":846:874  funderIndex < funders.length */\n      lt\n        /* \"Contracts/FundMe.sol\":820:1002  for(uint funderIndex = 0; funderIndex < funders.length; funderIndex++){... */\n      iszero\n      tag_50\n      jumpi\n        /* \"Contracts/FundMe.sol\":905:919  address funder */\n      0x00\n        /* \"Contracts/FundMe.sol\":922:929  funders */\n      0x01\n        /* \"Contracts/FundMe.sol\":930:941  funderIndex */\n      dup3\n        /* \"Contracts/FundMe.sol\":922:942  funders[funderIndex] */\n      dup2\n      sload\n      dup2\n      lt\n      tag_52\n      jumpi\n      tag_53\n      tag_54\n      jump\t// in\n    tag_53:\n    tag_52:\n      swap1\n      0x00\n      mstore\n      keccak256(0x00, 0x20)\n      add\n      0x00\n      swap1\n      sload\n      swap1\n      0x0100\n      exp\n      swap1\n      div\n      0xffffffffffffffffffffffffffffffffffffffff\n      and\n        /* \"Contracts/FundMe.sol\":905:942  address funder = funders[funderIndex] */\n      swap1\n      pop\n        /* \"Contracts/FundMe.sol\":989:990  0 */\n      0x00\n        /* \"Contracts/FundMe.sol\":957:978  addressToAmountFunded */\n      0x02\n        /* \"Contracts/FundMe.sol\":957:986  addressToAmountFunded[funder] */\n      0x00\n        /* \"Contracts/FundMe.sol\":979:985  funder */\n      dup4\n        /* \"Contracts/FundMe.sol\":957:986  addressToAmountFunded[funder] */\n      0xffffffffffffffffffffffffffffffffffffffff\n      and\n      0xffffffffffffffffffffffffffffffffffffffff\n      and\n      dup2\n      mstore\n      0x20\n      add\n      swap1\n      dup2\n      mstore\n      0x20\n      add\n      0x00\n      keccak256\n        /* \"Contracts/FundMe.sol\":957:990  addressToAmountFunded[funder] = 0 */\n      dup2\n      swap1\n      sstore\n      pop\n        /* \"Contracts/FundMe.sol\":890:1002  {... */\n      pop\n        /* \"Contracts/FundMe.sol\":876:889  funderIndex++ */\n      dup1\n      dup1\n      tag_56\n      swap1\n      tag_57\n      jump\t// in\n    tag_56:\n      swap2\n      pop\n      pop\n        /* \"Contracts/FundMe.sol\":820:1002  for(uint funderIndex = 0; funderIndex < funders.length; funderIndex++){... */\n      jump(tag_49)\n    tag_50:\n      pop\n        /* \"Contracts/FundMe.sol\":1071:1072  0 */\n      0x00\n        /* \"Contracts/FundMe.sol\":1056:1073  new address[] (0) */\n      0xffffffffffffffff\n      dup2\n      gt\n      iszero\n      tag_58\n      jumpi\n      tag_59\n      tag_60\n      jump\t// in\n    tag_59:\n    tag_58:\n      mload(0x40)\n      swap1\n      dup1\n      dup3\n      mstore\n      dup1\n      0x20\n      mul\n      0x20\n      add\n      dup3\n      add\n      0x40\n      mstore\n      dup1\n      iszero\n      tag_61\n      jumpi\n      dup2\n      0x20\n      add\n      0x20\n      dup3\n      mul\n      dup1\n      calldatasize\n      dup4\n      calldatacopy\n      dup1\n      dup3\n      add\n      swap2\n      pop\n      pop\n      swap1\n      pop\n    tag_61:\n      pop\n        /* \"Contracts/FundMe.sol\":1046:1053  funders */\n      0x01\n        /* \"Contracts/FundMe.sol\":1046:1073  funders = new address[] (0) */\n      swap1\n      dup1\n      mload\n      swap1\n      0x20\n      add\n      swap1\n      tag_62\n      swap3\n      swap2\n      swap1\n      tag_63\n      jump\t// in\n    tag_62:\n      pop\n        /* \"Contracts/FundMe.sol\":1136:1152  bool callSuccess */\n      0x00\n        /* \"Contracts/FundMe.sol\":1166:1176  msg.sender */\n      caller\n        /* \"Contracts/FundMe.sol\":1158:1182  payable(msg.sender).call */\n      0xffffffffffffffffffffffffffffffffffffffff\n      and\n        /* \"Contracts/FundMe.sol\":1190:1211  address(this).balance */\n      selfbalance\n        /* \"Contracts/FundMe.sol\":1158:1216  payable(msg.sender).call{value: address(this).balance}(\"\") */\n      mload(0x40)\n      tag_64\n      swap1\n      tag_65\n      jump\t// in\n    tag_64:\n      0x00\n      mload(0x40)\n      dup1\n      dup4\n      sub\n      dup2\n      dup6\n      dup8\n      gas\n      call\n      swap3\n      pop\n      pop\n      pop\n      returndatasize\n      dup1\n      0x00\n      dup2\n      eq\n      tag_68\n      jumpi\n      mload(0x40)\n      swap2\n      pop\n      and(add(returndatasize, 0x3f), not(0x1f))\n      dup3\n      add\n      0x40\n      mstore\n      returndatasize\n      dup3\n      mstore\n      returndatasize\n      0x00\n      0x20\n      dup5\n      add\n      returndatacopy\n      jump(tag_67)\n    tag_68:\n      0x60\n      swap2\n      pop\n    tag_67:\n      pop\n        /* \"Contracts/FundMe.sol\":1135:1216  (bool callSuccess, ) = payable(msg.sender).call{value: address(this).balance}(\"\") */\n      pop\n      swap1\n      pop\n        /* \"Contracts/FundMe.sol\":1235:1246  callSuccess */\n      dup1\n        /* \"Contracts/FundMe.sol\":1227:1262  require(callSuccess, \"Call failed\") */\n      tag_69\n      jumpi\n      mload(0x40)\n      0x08c379a000000000000000000000000000000000000000000000000000000000\n      dup2\n      mstore\n      0x04\n      add\n      tag_70\n      swap1\n      tag_71\n      jump\t// in\n    tag_70:\n      mload(0x40)\n      dup1\n      swap2\n      sub\n      swap1\n      revert\n    tag_69:\n        /* \"Contracts/FundMe.sol\":809:1270  {... */\n      pop\n        /* \"Contracts/FundMe.sol\":768:1270  function withdrawFund() public onlyOwner {... */\n      jump\t// out\n        /* \"Contracts/PriceConverter.sol\":775:983  function conversionRate(uint ethAmount) internal view returns (uint) {... */\n    tag_37:\n        /* \"Contracts/PriceConverter.sol\":838:842  uint */\n      0x00\n        /* \"Contracts/PriceConverter.sol\":855:868  uint ethPrice */\n      dup1\n        /* \"Contracts/PriceConverter.sol\":871:881  getPrice() */\n      tag_73\n        /* \"Contracts/PriceConverter.sol\":871:879  getPrice */\n      tag_74\n        /* \"Contracts/PriceConverter.sol\":871:881  getPrice() */\n      jump\t// in\n    tag_73:\n        /* \"Contracts/PriceConverter.sol\":855:881  uint ethPrice = getPrice() */\n      swap1\n      pop\n        /* \"Contracts/PriceConverter.sol\":892:911  uint ethAmountInUSD */\n      0x00\n        /* \"Contracts/PriceConverter.sol\":939:943  1e18 */\n      0x0de0b6b3a7640000\n        /* \"Contracts/PriceConverter.sol\":926:935  ethAmount */\n      dup5\n        /* \"Contracts/PriceConverter.sol\":915:923  ethPrice */\n      dup4\n        /* \"Contracts/PriceConverter.sol\":915:935  ethPrice * ethAmount */\n      tag_75\n      swap2\n      swap1\n      tag_76\n      jump\t// in\n    tag_75:\n        /* \"Contracts/PriceConverter.sol\":914:943  (ethPrice * ethAmount) / 1e18 */\n      tag_77\n      swap2\n      swap1\n      tag_78\n      jump\t// in\n    tag_77:\n        /* \"Contracts/PriceConverter.sol\":892:943  uint ethAmountInUSD = (ethPrice * ethAmount) / 1e18 */\n      swap1\n      pop\n        /* \"Contracts/PriceConverter.sol\":961:975  ethAmountInUSD */\n      dup1\n        /* \"Contracts/PriceConverter.sol\":954:975  return ethAmountInUSD */\n      swap3\n      pop\n      pop\n      pop\n        /* \"Contracts/PriceConverter.sol\":775:983  function conversionRate(uint ethAmount) internal view returns (uint) {... */\n      swap2\n      swap1\n      pop\n      jump\t// out\n        /* \"Contracts/PriceConverter.sol\":214:527  function getPrice() internal view returns (uint) {... */\n    tag_74:\n        /* \"Contracts/PriceConverter.sol\":257:261  uint */\n      0x00\n        /* \"Contracts/PriceConverter.sol\":338:365  AggregatorV3Interface price */\n      dup1\n        /* \"Contracts/PriceConverter.sol\":390:432  0xD4a33860578De61DBAbDc8BFdb98FD742fA7028e */\n      0xd4a33860578de61dbabdc8bfdb98fd742fa7028e\n        /* \"Contracts/PriceConverter.sol\":338:433  AggregatorV3Interface price = AggregatorV3Interface(0xD4a33860578De61DBAbDc8BFdb98FD742fA7028e) */\n      swap1\n      pop\n        /* \"Contracts/PriceConverter.sol\":446:454  int cost */\n      0x00\n        /* \"Contracts/PriceConverter.sol\":461:466  price */\n      dup2\n        /* \"Contracts/PriceConverter.sol\":461:482  price.latestRoundData */\n      0xffffffffffffffffffffffffffffffffffffffff\n      and\n      0xfeaf968c\n        /* \"Contracts/PriceConverter.sol\":461:484  price.latestRoundData() */\n      mload(0x40)\n      dup2\n      0xffffffff\n      and\n      0xe0\n      shl\n      dup2\n      mstore\n      0x04\n      add\n      0xa0\n      mload(0x40)\n      dup1\n      dup4\n      sub\n      dup2\n      dup7\n      gas\n      staticcall\n      iszero\n      dup1\n      iszero\n      tag_81\n      jumpi\n      returndatasize\n      0x00\n      dup1\n      returndatacopy\n      revert(0x00, returndatasize)\n    tag_81:\n      pop\n      pop\n      pop\n      pop\n      mload(0x40)\n      returndatasize\n      not(0x1f)\n      0x1f\n      dup3\n      add\n      and\n      dup3\n      add\n      dup1\n      0x40\n      mstore\n      pop\n      dup2\n      add\n      swap1\n      tag_82\n      swap2\n      swap1\n      tag_83\n      jump\t// in\n    tag_82:\n        /* \"Contracts/PriceConverter.sol\":444:484  (,int cost,,,) = price.latestRoundData() */\n      pop\n      pop\n      pop\n      swap2\n      pop\n      pop\n        /* \"Contracts/PriceConverter.sol\":514:518  1e10 */\n      0x02540be400\n        /* \"Contracts/PriceConverter.sol\":507:511  cost */\n      dup2\n        /* \"Contracts/PriceConverter.sol\":507:518  cost * 1e10 */\n      tag_84\n      swap2\n      swap1\n      tag_85\n      jump\t// in\n    tag_84:\n        /* \"Contracts/PriceConverter.sol\":495:519  return uint(cost * 1e10) */\n      swap3\n      pop\n      pop\n      pop\n        /* \"Contracts/PriceConverter.sol\":214:527  function getPrice() internal view returns (uint) {... */\n      swap1\n      jump\t// out\n    tag_63:\n      dup3\n      dup1\n      sload\n      dup3\n      dup3\n      sstore\n      swap1\n      0x00\n      mstore\n      keccak256(0x00, 0x20)\n      swap1\n      dup2\n      add\n      swap3\n      dup3\n      iszero\n      tag_86\n      jumpi\n      swap2\n      0x20\n      mul\n      dup3\n      add\n    tag_87:\n      dup3\n      dup2\n      gt\n      iszero\n      tag_88\n      jumpi\n      dup3\n      mload\n      dup3\n      exp(0x0100, 0x00)\n      dup2\n      sload\n      dup2\n      0xffffffffffffffffffffffffffffffffffffffff\n      mul\n      not\n      and\n      swap1\n      dup4\n      0xffffffffffffffffffffffffffffffffffffffff\n      and\n      mul\n      or\n      swap1\n      sstore\n      pop\n      swap2\n      0x20\n      add\n      swap2\n      swap1\n      0x01\n      add\n      swap1\n      jump(tag_87)\n    tag_88:\n    tag_86:\n      pop\n      swap1\n      pop\n      tag_89\n      swap2\n      swap1\n      tag_90\n      jump\t// in\n    tag_89:\n      pop\n      swap1\n      jump\t// out\n    tag_90:\n    tag_91:\n      dup1\n      dup3\n      gt\n      iszero\n      tag_92\n      jumpi\n      0x00\n      dup2\n      0x00\n      swap1\n      sstore\n      pop\n      0x01\n      add\n      jump(tag_91)\n    tag_92:\n      pop\n      swap1\n      jump\t// out\n        /* \"#utility.yul\":7:84   */\n    tag_93:\n        /* \"#utility.yul\":44:51   */\n      0x00\n        /* \"#utility.yul\":73:78   */\n      dup2\n        /* \"#utility.yul\":62:78   */\n      swap1\n      pop\n        /* \"#utility.yul\":7:84   */\n      swap2\n      swap1\n      pop\n      jump\t// out\n        /* \"#utility.yul\":90:208   */\n    tag_94:\n        /* \"#utility.yul\":177:201   */\n      tag_127\n        /* \"#utility.yul\":195:200   */\n      dup2\n        /* \"#utility.yul\":177:201   */\n      tag_93\n      jump\t// in\n    tag_127:\n        /* \"#utility.yul\":172:175   */\n      dup3\n        /* \"#utility.yul\":165:202   */\n      mstore\n        /* \"#utility.yul\":90:208   */\n      pop\n      pop\n      jump\t// out\n        /* \"#utility.yul\":214:436   */\n    tag_12:\n        /* \"#utility.yul\":307:311   */\n      0x00\n        /* \"#utility.yul\":345:347   */\n      0x20\n        /* \"#utility.yul\":334:343   */\n      dup3\n        /* \"#utility.yul\":330:348   */\n      add\n        /* \"#utility.yul\":322:348   */\n      swap1\n      pop\n        /* \"#utility.yul\":358:429   */\n      tag_129\n        /* \"#utility.yul\":426:427   */\n      0x00\n        /* \"#utility.yul\":415:424   */\n      dup4\n        /* \"#utility.yul\":411:428   */\n      add\n        /* \"#utility.yul\":402:408   */\n      dup5\n        /* \"#utility.yul\":358:429   */\n      tag_94\n      jump\t// in\n    tag_129:\n        /* \"#utility.yul\":214:436   */\n      swap3\n      swap2\n      pop\n      pop\n      jump\t// out\n        /* \"#utility.yul\":523:640   */\n    tag_96:\n        /* \"#utility.yul\":632:633   */\n      0x00\n        /* \"#utility.yul\":629:630   */\n      dup1\n        /* \"#utility.yul\":622:634   */\n      revert\n        /* \"#utility.yul\":769:895   */\n    tag_98:\n        /* \"#utility.yul\":806:813   */\n      0x00\n        /* \"#utility.yul\":846:888   */\n      0xffffffffffffffffffffffffffffffffffffffff\n        /* \"#utility.yul\":839:844   */\n      dup3\n        /* \"#utility.yul\":835:889   */\n      and\n        /* \"#utility.yul\":824:889   */\n      swap1\n      pop\n        /* \"#utility.yul\":769:895   */\n      swap2\n      swap1\n      pop\n      jump\t// out\n        /* \"#utility.yul\":901:997   */\n    tag_99:\n        /* \"#utility.yul\":938:945   */\n      0x00\n        /* \"#utility.yul\":967:991   */\n      tag_135\n        /* \"#utility.yul\":985:990   */\n      dup3\n        /* \"#utility.yul\":967:991   */\n      tag_98\n      jump\t// in\n    tag_135:\n        /* \"#utility.yul\":956:991   */\n      swap1\n      pop\n        /* \"#utility.yul\":901:997   */\n      swap2\n      swap1\n      pop\n      jump\t// out\n        /* \"#utility.yul\":1003:1125   */\n    tag_100:\n        /* \"#utility.yul\":1076:1100   */\n      tag_137\n        /* \"#utility.yul\":1094:1099   */\n      dup2\n        /* \"#utility.yul\":1076:1100   */\n      tag_99\n      jump\t// in\n    tag_137:\n        /* \"#utility.yul\":1069:1074   */\n      dup2\n        /* \"#utility.yul\":1066:1101   */\n      eq\n        /* \"#utility.yul\":1056:1119   */\n      tag_138\n      jumpi\n        /* \"#utility.yul\":1115:1116   */\n      0x00\n        /* \"#utility.yul\":1112:1113   */\n      dup1\n        /* \"#utility.yul\":1105:1117   */\n      revert\n        /* \"#utility.yul\":1056:1119   */\n    tag_138:\n        /* \"#utility.yul\":1003:1125   */\n      pop\n      jump\t// out\n        /* \"#utility.yul\":1131:1270   */\n    tag_101:\n        /* \"#utility.yul\":1177:1182   */\n      0x00\n        /* \"#utility.yul\":1215:1221   */\n      dup2\n        /* \"#utility.yul\":1202:1222   */\n      calldataload\n        /* \"#utility.yul\":1193:1222   */\n      swap1\n      pop\n        /* \"#utility.yul\":1231:1264   */\n      tag_140\n        /* \"#utility.yul\":1258:1263   */\n      dup2\n        /* \"#utility.yul\":1231:1264   */\n      tag_100\n      jump\t// in\n    tag_140:\n        /* \"#utility.yul\":1131:1270   */\n      swap3\n      swap2\n      pop\n      pop\n      jump\t// out\n        /* \"#utility.yul\":1276:1605   */\n    tag_16:\n        /* \"#utility.yul\":1335:1341   */\n      0x00\n        /* \"#utility.yul\":1384:1386   */\n      0x20\n        /* \"#utility.yul\":1372:1381   */\n      dup3\n        /* \"#utility.yul\":1363:1370   */\n      dup5\n        /* \"#utility.yul\":1359:1382   */\n      sub\n        /* \"#utility.yul\":1355:1387   */\n      slt\n        /* \"#utility.yul\":1352:1471   */\n      iszero\n      tag_142\n      jumpi\n        /* \"#utility.yul\":1390:1469   */\n      tag_143\n      tag_96\n      jump\t// in\n    tag_143:\n        /* \"#utility.yul\":1352:1471   */\n    tag_142:\n        /* \"#utility.yul\":1510:1511   */\n      0x00\n        /* \"#utility.yul\":1535:1588   */\n      tag_144\n        /* \"#utility.yul\":1580:1587   */\n      dup5\n        /* \"#utility.yul\":1571:1577   */\n      dup3\n        /* \"#utility.yul\":1560:1569   */\n      dup6\n        /* \"#utility.yul\":1556:1578   */\n      add\n        /* \"#utility.yul\":1535:1588   */\n      tag_101\n      jump\t// in\n    tag_144:\n        /* \"#utility.yul\":1525:1588   */\n      swap2\n      pop\n        /* \"#utility.yul\":1481:1598   */\n      pop\n        /* \"#utility.yul\":1276:1605   */\n      swap3\n      swap2\n      pop\n      pop\n      jump\t// out\n        /* \"#utility.yul\":1611:1729   */\n    tag_102:\n        /* \"#utility.yul\":1698:1722   */\n      tag_146\n        /* \"#utility.yul\":1716:1721   */\n      dup2\n        /* \"#utility.yul\":1698:1722   */\n      tag_99\n      jump\t// in\n    tag_146:\n        /* \"#utility.yul\":1693:1696   */\n      dup3\n        /* \"#utility.yul\":1686:1723   */\n      mstore\n        /* \"#utility.yul\":1611:1729   */\n      pop\n      pop\n      jump\t// out\n        /* \"#utility.yul\":1735:1957   */\n    tag_23:\n        /* \"#utility.yul\":1828:1832   */\n      0x00\n        /* \"#utility.yul\":1866:1868   */\n      0x20\n        /* \"#utility.yul\":1855:1864   */\n      dup3\n        /* \"#utility.yul\":1851:1869   */\n      add\n        /* \"#utility.yul\":1843:1869   */\n      swap1\n      pop\n        /* \"#utility.yul\":1879:1950   */\n      tag_148\n        /* \"#utility.yul\":1947:1948   */\n      0x00\n        /* \"#utility.yul\":1936:1945   */\n      dup4\n        /* \"#utility.yul\":1932:1949   */\n      add\n        /* \"#utility.yul\":1923:1929   */\n      dup5\n        /* \"#utility.yul\":1879:1950   */\n      tag_102\n      jump\t// in\n    tag_148:\n        /* \"#utility.yul\":1735:1957   */\n      swap3\n      swap2\n      pop\n      pop\n      jump\t// out\n        /* \"#utility.yul\":1963:2085   */\n    tag_103:\n        /* \"#utility.yul\":2036:2060   */\n      tag_150\n        /* \"#utility.yul\":2054:2059   */\n      dup2\n        /* \"#utility.yul\":2036:2060   */\n      tag_93\n      jump\t// in\n    tag_150:\n        /* \"#utility.yul\":2029:2034   */\n      dup2\n        /* \"#utility.yul\":2026:2061   */\n      eq\n        /* \"#utility.yul\":2016:2079   */\n      tag_151\n      jumpi\n        /* \"#utility.yul\":2075:2076   */\n      0x00\n        /* \"#utility.yul\":2072:2073   */\n      dup1\n        /* \"#utility.yul\":2065:2077   */\n      revert\n        /* \"#utility.yul\":2016:2079   */\n    tag_151:\n        /* \"#utility.yul\":1963:2085   */\n      pop\n      jump\t// out\n        /* \"#utility.yul\":2091:2230   */\n    tag_104:\n        /* \"#utility.yul\":2137:2142   */\n      0x00\n        /* \"#utility.yul\":2175:2181   */\n      dup2\n        /* \"#utility.yul\":2162:2182   */\n      calldataload\n        /* \"#utility.yul\":2153:2182   */\n      swap1\n      pop\n        /* \"#utility.yul\":2191:2224   */\n      tag_153\n        /* \"#utility.yul\":2218:2223   */\n      dup2\n        /* \"#utility.yul\":2191:2224   */\n      tag_103\n      jump\t// in\n    tag_153:\n        /* \"#utility.yul\":2091:2230   */\n      swap3\n      swap2\n      pop\n      pop\n      jump\t// out\n        /* \"#utility.yul\":2236:2565   */\n    tag_29:\n        /* \"#utility.yul\":2295:2301   */\n      0x00\n        /* \"#utility.yul\":2344:2346   */\n      0x20\n        /* \"#utility.yul\":2332:2341   */\n      dup3\n        /* \"#utility.yul\":2323:2330   */\n      dup5\n        /* \"#utility.yul\":2319:2342   */\n      sub\n        /* \"#utility.yul\":2315:2347   */\n      slt\n        /* \"#utility.yul\":2312:2431   */\n      iszero\n      tag_155\n      jumpi\n        /* \"#utility.yul\":2350:2429   */\n      tag_156\n      tag_96\n      jump\t// in\n    tag_156:\n        /* \"#utility.yul\":2312:2431   */\n    tag_155:\n        /* \"#utility.yul\":2470:2471   */\n      0x00\n        /* \"#utility.yul\":2495:2548   */\n      tag_157\n        /* \"#utility.yul\":2540:2547   */\n      dup5\n        /* \"#utility.yul\":2531:2537   */\n      dup3\n        /* \"#utility.yul\":2520:2529   */\n      dup6\n        /* \"#utility.yul\":2516:2538   */\n      add\n        /* \"#utility.yul\":2495:2548   */\n      tag_104\n      jump\t// in\n    tag_157:\n        /* \"#utility.yul\":2485:2548   */\n      swap2\n      pop\n        /* \"#utility.yul\":2441:2558   */\n      pop\n        /* \"#utility.yul\":2236:2565   */\n      swap3\n      swap2\n      pop\n      pop\n      jump\t// out\n        /* \"#utility.yul\":2571:2740   */\n    tag_105:\n        /* \"#utility.yul\":2655:2666   */\n      0x00\n        /* \"#utility.yul\":2689:2695   */\n      dup3\n        /* \"#utility.yul\":2684:2687   */\n      dup3\n        /* \"#utility.yul\":2677:2696   */\n      mstore\n        /* \"#utility.yul\":2729:2733   */\n      0x20\n        /* \"#utility.yul\":2724:2727   */\n      dup3\n        /* \"#utility.yul\":2720:2734   */\n      add\n        /* \"#utility.yul\":2705:2734   */\n      swap1\n      pop\n        /* \"#utility.yul\":2571:2740   */\n      swap3\n      swap2\n      pop\n      pop\n      jump\t// out\n        /* \"#utility.yul\":2746:2920   */\n    tag_106:\n        /* \"#utility.yul\":2886:2912   */\n      0x4469646e27742073656e6420656e6f7567682065746865720000000000000000\n        /* \"#utility.yul\":2882:2883   */\n      0x00\n        /* \"#utility.yul\":2874:2880   */\n      dup3\n        /* \"#utility.yul\":2870:2884   */\n      add\n        /* \"#utility.yul\":2863:2913   */\n      mstore\n        /* \"#utility.yul\":2746:2920   */\n      pop\n      jump\t// out\n        /* \"#utility.yul\":2926:3292   */\n    tag_107:\n        /* \"#utility.yul\":3068:3071   */\n      0x00\n        /* \"#utility.yul\":3089:3156   */\n      tag_161\n        /* \"#utility.yul\":3153:3155   */\n      0x18\n        /* \"#utility.yul\":3148:3151   */\n      dup4\n        /* \"#utility.yul\":3089:3156   */\n      tag_105\n      jump\t// in\n    tag_161:\n        /* \"#utility.yul\":3082:3156   */\n      swap2\n      pop\n        /* \"#utility.yul\":3165:3258   */\n      tag_162\n        /* \"#utility.yul\":3254:3257   */\n      dup3\n        /* \"#utility.yul\":3165:3258   */\n      tag_106\n      jump\t// in\n    tag_162:\n        /* \"#utility.yul\":3283:3285   */\n      0x20\n        /* \"#utility.yul\":3278:3281   */\n      dup3\n        /* \"#utility.yul\":3274:3286   */\n      add\n        /* \"#utility.yul\":3267:3286   */\n      swap1\n      pop\n        /* \"#utility.yul\":2926:3292   */\n      swap2\n      swap1\n      pop\n      jump\t// out\n        /* \"#utility.yul\":3298:3717   */\n    tag_40:\n        /* \"#utility.yul\":3464:3468   */\n      0x00\n        /* \"#utility.yul\":3502:3504   */\n      0x20\n        /* \"#utility.yul\":3491:3500   */\n      dup3\n        /* \"#utility.yul\":3487:3505   */\n      add\n        /* \"#utility.yul\":3479:3505   */\n      swap1\n      pop\n        /* \"#utility.yul\":3551:3560   */\n      dup2\n        /* \"#utility.yul\":3545:3549   */\n      dup2\n        /* \"#utility.yul\":3541:3561   */\n      sub\n        /* \"#utility.yul\":3537:3538   */\n      0x00\n        /* \"#utility.yul\":3526:3535   */\n      dup4\n        /* \"#utility.yul\":3522:3539   */\n      add\n        /* \"#utility.yul\":3515:3562   */\n      mstore\n        /* \"#utility.yul\":3579:3710   */\n      tag_164\n        /* \"#utility.yul\":3705:3709   */\n      dup2\n        /* \"#utility.yul\":3579:3710   */\n      tag_107\n      jump\t// in\n    tag_164:\n        /* \"#utility.yul\":3571:3710   */\n      swap1\n      pop\n        /* \"#utility.yul\":3298:3717   */\n      swap2\n      swap1\n      pop\n      jump\t// out\n        /* \"#utility.yul\":3723:3892   */\n    tag_108:\n        /* \"#utility.yul\":3863:3884   */\n      0x53656e646572206973206e6f74206f776e657200000000000000000000000000\n        /* \"#utility.yul\":3859:3860   */\n      0x00\n        /* \"#utility.yul\":3851:3857   */\n      dup3\n        /* \"#utility.yul\":3847:3861   */\n      add\n        /* \"#utility.yul\":3840:3885   */\n      mstore\n        /* \"#utility.yul\":3723:3892   */\n      pop\n      jump\t// out\n        /* \"#utility.yul\":3898:4264   */\n    tag_109:\n        /* \"#utility.yul\":4040:4043   */\n      0x00\n        /* \"#utility.yul\":4061:4128   */\n      tag_167\n        /* \"#utility.yul\":4125:4127   */\n      0x13\n        /* \"#utility.yul\":4120:4123   */\n      dup4\n        /* \"#utility.yul\":4061:4128   */\n      tag_105\n      jump\t// in\n    tag_167:\n        /* \"#utility.yul\":4054:4128   */\n      swap2\n      pop\n        /* \"#utility.yul\":4137:4230   */\n      tag_168\n        /* \"#utility.yul\":4226:4229   */\n      dup3\n        /* \"#utility.yul\":4137:4230   */\n      tag_108\n      jump\t// in\n    tag_168:\n        /* \"#utility.yul\":4255:4257   */\n      0x20\n        /* \"#utility.yul\":4250:4253   */\n      dup3\n        /* \"#utility.yul\":4246:4258   */\n      add\n        /* \"#utility.yul\":4239:4258   */\n      swap1\n      pop\n        /* \"#utility.yul\":3898:4264   */\n      swap2\n      swap1\n      pop\n      jump\t// out\n        /* \"#utility.yul\":4270:4689   */\n    tag_47:\n        /* \"#utility.yul\":4436:4440   */\n      0x00\n        /* \"#utility.yul\":4474:4476   */\n      0x20\n        /* \"#utility.yul\":4463:4472   */\n      dup3\n        /* \"#utility.yul\":4459:4477   */\n      add\n        /* \"#utility.yul\":4451:4477   */\n      swap1\n      pop\n        /* \"#utility.yul\":4523:4532   */\n      dup2\n        /* \"#utility.yul\":4517:4521   */\n      dup2\n        /* \"#utility.yul\":4513:4533   */\n      sub\n        /* \"#utility.yul\":4509:4510   */\n      0x00\n        /* \"#utility.yul\":4498:4507   */\n      dup4\n        /* \"#utility.yul\":4494:4511   */\n      add\n        /* \"#utility.yul\":4487:4534   */\n      mstore\n        /* \"#utility.yul\":4551:4682   */\n      tag_170\n        /* \"#utility.yul\":4677:4681   */\n      dup2\n        /* \"#utility.yul\":4551:4682   */\n      tag_109\n      jump\t// in\n    tag_170:\n        /* \"#utility.yul\":4543:4682   */\n      swap1\n      pop\n        /* \"#utility.yul\":4270:4689   */\n      swap2\n      swap1\n      pop\n      jump\t// out\n        /* \"#utility.yul\":4695:4875   */\n    tag_54:\n        /* \"#utility.yul\":4743:4820   */\n      0x4e487b7100000000000000000000000000000000000000000000000000000000\n        /* \"#utility.yul\":4740:4741   */\n      0x00\n        /* \"#utility.yul\":4733:4821   */\n      mstore\n        /* \"#utility.yul\":4840:4844   */\n      0x32\n        /* \"#utility.yul\":4837:4838   */\n      0x04\n        /* \"#utility.yul\":4830:4845   */\n      mstore\n        /* \"#utility.yul\":4864:4868   */\n      0x24\n        /* \"#utility.yul\":4861:4862   */\n      0x00\n        /* \"#utility.yul\":4854:4869   */\n      revert\n        /* \"#utility.yul\":4881:5061   */\n    tag_110:\n        /* \"#utility.yul\":4929:5006   */\n      0x4e487b7100000000000000000000000000000000000000000000000000000000\n        /* \"#utility.yul\":4926:4927   */\n      0x00\n        /* \"#utility.yul\":4919:5007   */\n      mstore\n        /* \"#utility.yul\":5026:5030   */\n      0x11\n        /* \"#utility.yul\":5023:5024   */\n      0x04\n        /* \"#utility.yul\":5016:5031   */\n      mstore\n        /* \"#utility.yul\":5050:5054   */\n      0x24\n        /* \"#utility.yul\":5047:5048   */\n      0x00\n        /* \"#utility.yul\":5040:5055   */\n      revert\n        /* \"#utility.yul\":5067:5300   */\n    tag_57:\n        /* \"#utility.yul\":5106:5109   */\n      0x00\n        /* \"#utility.yul\":5129:5153   */\n      tag_174\n        /* \"#utility.yul\":5147:5152   */\n      dup3\n        /* \"#utility.yul\":5129:5153   */\n      tag_93\n      jump\t// in\n    tag_174:\n        /* \"#utility.yul\":5120:5153   */\n      swap2\n      pop\n        /* \"#utility.yul\":5175:5241   */\n      0xffffffffffffffffffffffffffffffffffffffffffffffffffffffffffffffff\n        /* \"#utility.yul\":5168:5173   */\n      dup3\n        /* \"#utility.yul\":5165:5242   */\n      sub\n        /* \"#utility.yul\":5162:5265   */\n      tag_175\n      jumpi\n        /* \"#utility.yul\":5245:5263   */\n      tag_176\n      tag_110\n      jump\t// in\n    tag_176:\n        /* \"#utility.yul\":5162:5265   */\n    tag_175:\n        /* \"#utility.yul\":5292:5293   */\n      0x01\n        /* \"#utility.yul\":5285:5290   */\n      dup3\n        /* \"#utility.yul\":5281:5294   */\n      add\n        /* \"#utility.yul\":5274:5294   */\n      swap1\n      pop\n        /* \"#utility.yul\":5067:5300   */\n      swap2\n      swap1\n      pop\n      jump\t// out\n        /* \"#utility.yul\":5306:5486   */\n    tag_60:\n        /* \"#utility.yul\":5354:5431   */\n      0x4e487b7100000000000000000000000000000000000000000000000000000000\n        /* \"#utility.yul\":5351:5352   */\n      0x00\n        /* \"#utility.yul\":5344:5432   */\n      mstore\n        /* \"#utility.yul\":5451:5455   */\n      0x41\n        /* \"#utility.yul\":5448:5449   */\n      0x04\n        /* \"#utility.yul\":5441:5456   */\n      mstore\n        /* \"#utility.yul\":5475:5479   */\n      0x24\n        /* \"#utility.yul\":5472:5473   */\n      0x00\n        /* \"#utility.yul\":5465:5480   */\n      revert\n        /* \"#utility.yul\":5492:5639   */\n    tag_111:\n        /* \"#utility.yul\":5593:5604   */\n      0x00\n        /* \"#utility.yul\":5630:5633   */\n      dup2\n        /* \"#utility.yul\":5615:5633   */\n      swap1\n      pop\n        /* \"#utility.yul\":5492:5639   */\n      swap3\n      swap2\n      pop\n      pop\n      jump\t// out\n        /* \"#utility.yul\":5645:5759   */\n    tag_112:\n      pop\n      jump\t// out\n        /* \"#utility.yul\":5765:6163   */\n    tag_113:\n        /* \"#utility.yul\":5924:5927   */\n      0x00\n        /* \"#utility.yul\":5945:6028   */\n      tag_181\n        /* \"#utility.yul\":6026:6027   */\n      0x00\n        /* \"#utility.yul\":6021:6024   */\n      dup4\n        /* \"#utility.yul\":5945:6028   */\n      tag_111\n      jump\t// in\n    tag_181:\n        /* \"#utility.yul\":5938:6028   */\n      swap2\n      pop\n        /* \"#utility.yul\":6037:6130   */\n      tag_182\n        /* \"#utility.yul\":6126:6129   */\n      dup3\n        /* \"#utility.yul\":6037:6130   */\n      tag_112\n      jump\t// in\n    tag_182:\n        /* \"#utility.yul\":6155:6156   */\n      0x00\n        /* \"#utility.yul\":6150:6153   */\n      dup3\n        /* \"#utility.yul\":6146:6157   */\n      add\n        /* \"#utility.yul\":6139:6157   */\n      swap1\n      pop\n        /* \"#utility.yul\":5765:6163   */\n      swap2\n      swap1\n      pop\n      jump\t// out\n        /* \"#utility.yul\":6169:6548   */\n    tag_65:\n        /* \"#utility.yul\":6353:6356   */\n      0x00\n        /* \"#utility.yul\":6375:6522   */\n      tag_184\n        /* \"#utility.yul\":6518:6521   */\n      dup3\n        /* \"#utility.yul\":6375:6522   */\n      tag_113\n      jump\t// in\n    tag_184:\n        /* \"#utility.yul\":6368:6522   */\n      swap2\n      pop\n        /* \"#utility.yul\":6539:6542   */\n      dup2\n        /* \"#utility.yul\":6532:6542   */\n      swap1\n      pop\n        /* \"#utility.yul\":6169:6548   */\n      swap2\n      swap1\n      pop\n      jump\t// out\n        /* \"#utility.yul\":6554:6715   */\n    tag_114:\n        /* \"#utility.yul\":6694:6707   */\n      0x43616c6c206661696c6564000000000000000000000000000000000000000000\n        /* \"#utility.yul\":6690:6691   */\n      0x00\n        /* \"#utility.yul\":6682:6688   */\n      dup3\n        /* \"#utility.yul\":6678:6692   */\n      add\n        /* \"#utility.yul\":6671:6708   */\n      mstore\n        /* \"#utility.yul\":6554:6715   */\n      pop\n      jump\t// out\n        /* \"#utility.yul\":6721:7087   */\n    tag_115:\n        /* \"#utility.yul\":6863:6866   */\n      0x00\n        /* \"#utility.yul\":6884:6951   */\n      tag_187\n        /* \"#utility.yul\":6948:6950   */\n      0x0b\n        /* \"#utility.yul\":6943:6946   */\n      dup4\n        /* \"#utility.yul\":6884:6951   */\n      tag_105\n      jump\t// in\n    tag_187:\n        /* \"#utility.yul\":6877:6951   */\n      swap2\n      pop\n        /* \"#utility.yul\":6960:7053   */\n      tag_188\n        /* \"#utility.yul\":7049:7052   */\n      dup3\n        /* \"#utility.yul\":6960:7053   */\n      tag_114\n      jump\t// in\n    tag_188:\n        /* \"#utility.yul\":7078:7080   */\n      0x20\n        /* \"#utility.yul\":7073:7076   */\n      dup3\n        /* \"#utility.yul\":7069:7081   */\n      add\n        /* \"#utility.yul\":7062:7081   */\n      swap1\n      pop\n        /* \"#utility.yul\":6721:7087   */\n      swap2\n      swap1\n      pop\n      jump\t// out\n        /* \"#utility.yul\":7093:7512   */\n    tag_71:\n        /* \"#utility.yul\":7259:7263   */\n      0x00\n        /* \"#utility.yul\":7297:7299   */\n      0x20\n        /* \"#utility.yul\":7286:7295   */\n      dup3\n        /* \"#utility.yul\":7282:7300   */\n      add\n        /* \"#utility.yul\":7274:7300   */\n      swap1\n      pop\n        /* \"#utility.yul\":7346:7355   */\n      dup2\n        /* \"#utility.yul\":7340:7344   */\n      dup2\n        /* \"#utility.yul\":7336:7356   */\n      sub\n        /* \"#utility.yul\":7332:7333   */\n      0x00\n        /* \"#utility.yul\":7321:7330   */\n      dup4\n        /* \"#utility.yul\":7317:7334   */\n      add\n        /* \"#utility.yul\":7310:7357   */\n      mstore\n        /* \"#utility.yul\":7374:7505   */\n      tag_190\n        /* \"#utility.yul\":7500:7504   */\n      dup2\n        /* \"#utility.yul\":7374:7505   */\n      tag_115\n      jump\t// in\n    tag_190:\n        /* \"#utility.yul\":7366:7505   */\n      swap1\n      pop\n        /* \"#utility.yul\":7093:7512   */\n      swap2\n      swap1\n      pop\n      jump\t// out\n        /* \"#utility.yul\":7518:7928   */\n    tag_76:\n        /* \"#utility.yul\":7558:7565   */\n      0x00\n        /* \"#utility.yul\":7581:7601   */\n      tag_192\n        /* \"#utility.yul\":7599:7600   */\n      dup3\n        /* \"#utility.yul\":7581:7601   */\n      tag_93\n      jump\t// in\n    tag_192:\n        /* \"#utility.yul\":7576:7601   */\n      swap2\n      pop\n        /* \"#utility.yul\":7615:7635   */\n      tag_193\n        /* \"#utility.yul\":7633:7634   */\n      dup4\n        /* \"#utility.yul\":7615:7635   */\n      tag_93\n      jump\t// in\n    tag_193:\n        /* \"#utility.yul\":7610:7635   */\n      swap3\n      pop\n        /* \"#utility.yul\":7670:7671   */\n      dup3\n        /* \"#utility.yul\":7667:7668   */\n      dup3\n        /* \"#utility.yul\":7663:7672   */\n      mul\n        /* \"#utility.yul\":7692:7722   */\n      tag_194\n        /* \"#utility.yul\":7710:7721   */\n      dup2\n        /* \"#utility.yul\":7692:7722   */\n      tag_93\n      jump\t// in\n    tag_194:\n        /* \"#utility.yul\":7681:7722   */\n      swap2\n      pop\n        /* \"#utility.yul\":7871:7872   */\n      dup3\n        /* \"#utility.yul\":7862:7869   */\n      dup3\n        /* \"#utility.yul\":7858:7873   */\n      div\n        /* \"#utility.yul\":7855:7856   */\n      dup5\n        /* \"#utility.yul\":7852:7874   */\n      eq\n        /* \"#utility.yul\":7832:7833   */\n      dup4\n        /* \"#utility.yul\":7825:7834   */\n      iszero\n        /* \"#utility.yul\":7805:7888   */\n      or\n        /* \"#utility.yul\":7782:7921   */\n      tag_195\n      jumpi\n        /* \"#utility.yul\":7901:7919   */\n      tag_196\n      tag_110\n      jump\t// in\n    tag_196:\n        /* \"#utility.yul\":7782:7921   */\n    tag_195:\n        /* \"#utility.yul\":7566:7928   */\n      pop\n        /* \"#utility.yul\":7518:7928   */\n      swap3\n      swap2\n      pop\n      pop\n      jump\t// out\n        /* \"#utility.yul\":7934:8114   */\n    tag_116:\n        /* \"#utility.yul\":7982:8059   */\n      0x4e487b7100000000000000000000000000000000000000000000000000000000\n        /* \"#utility.yul\":7979:7980   */\n      0x00\n        /* \"#utility.yul\":7972:8060   */\n      mstore\n        /* \"#utility.yul\":8079:8083   */\n      0x12\n        /* \"#utility.yul\":8076:8077   */\n      0x04\n        /* \"#utility.yul\":8069:8084   */\n      mstore\n        /* \"#utility.yul\":8103:8107   */\n      0x24\n        /* \"#utility.yul\":8100:8101   */\n      0x00\n        /* \"#utility.yul\":8093:8108   */\n      revert\n        /* \"#utility.yul\":8120:8305   */\n    tag_78:\n        /* \"#utility.yul\":8160:8161   */\n      0x00\n        /* \"#utility.yul\":8177:8197   */\n      tag_199\n        /* \"#utility.yul\":8195:8196   */\n      dup3\n        /* \"#utility.yul\":8177:8197   */\n      tag_93\n      jump\t// in\n    tag_199:\n        /* \"#utility.yul\":8172:8197   */\n      swap2\n      pop\n        /* \"#utility.yul\":8211:8231   */\n      tag_200\n        /* \"#utility.yul\":8229:8230   */\n      dup4\n        /* \"#utility.yul\":8211:8231   */\n      tag_93\n      jump\t// in\n    tag_200:\n        /* \"#utility.yul\":8206:8231   */\n      swap3\n      pop\n        /* \"#utility.yul\":8250:8251   */\n      dup3\n        /* \"#utility.yul\":8240:8275   */\n      tag_201\n      jumpi\n        /* \"#utility.yul\":8255:8273   */\n      tag_202\n      tag_116\n      jump\t// in\n    tag_202:\n        /* \"#utility.yul\":8240:8275   */\n    tag_201:\n        /* \"#utility.yul\":8297:8298   */\n      dup3\n        /* \"#utility.yul\":8294:8295   */\n      dup3\n        /* \"#utility.yul\":8290:8299   */\n      div\n        /* \"#utility.yul\":8285:8299   */\n      swap1\n      pop\n        /* \"#utility.yul\":8120:8305   */\n      swap3\n      swap2\n      pop\n      pop\n      jump\t// out\n        /* \"#utility.yul\":8311:8416   */\n    tag_117:\n        /* \"#utility.yul\":8347:8354   */\n      0x00\n        /* \"#utility.yul\":8387:8409   */\n      0xffffffffffffffffffff\n        /* \"#utility.yul\":8380:8385   */\n      dup3\n        /* \"#utility.yul\":8376:8410   */\n      and\n        /* \"#utility.yul\":8365:8410   */\n      swap1\n      pop\n        /* \"#utility.yul\":8311:8416   */\n      swap2\n      swap1\n      pop\n      jump\t// out\n        /* \"#utility.yul\":8422:8542   */\n    tag_118:\n        /* \"#utility.yul\":8494:8517   */\n      tag_205\n        /* \"#utility.yul\":8511:8516   */\n      dup2\n        /* \"#utility.yul\":8494:8517   */\n      tag_117\n      jump\t// in\n    tag_205:\n        /* \"#utility.yul\":8487:8492   */\n      dup2\n        /* \"#utility.yul\":8484:8518   */\n      eq\n        /* \"#utility.yul\":8474:8536   */\n      tag_206\n      jumpi\n        /* \"#utility.yul\":8532:8533   */\n      0x00\n        /* \"#utility.yul\":8529:8530   */\n      dup1\n        /* \"#utility.yul\":8522:8534   */\n      revert\n        /* \"#utility.yul\":8474:8536   */\n    tag_206:\n        /* \"#utility.yul\":8422:8542   */\n      pop\n      jump\t// out\n        /* \"#utility.yul\":8548:8689   */\n    tag_119:\n        /* \"#utility.yul\":8604:8609   */\n      0x00\n        /* \"#utility.yul\":8635:8641   */\n      dup2\n        /* \"#utility.yul\":8629:8642   */\n      mload\n        /* \"#utility.yul\":8620:8642   */\n      swap1\n      pop\n        /* \"#utility.yul\":8651:8683   */\n      tag_208\n        /* \"#utility.yul\":8677:8682   */\n      dup2\n        /* \"#utility.yul\":8651:8683   */\n      tag_118\n      jump\t// in\n    tag_208:\n        /* \"#utility.yul\":8548:8689   */\n      swap3\n      swap2\n      pop\n      pop\n      jump\t// out\n        /* \"#utility.yul\":8695:8771   */\n    tag_120:\n        /* \"#utility.yul\":8731:8738   */\n      0x00\n        /* \"#utility.yul\":8760:8765   */\n      dup2\n        /* \"#utility.yul\":8749:8765   */\n      swap1\n      pop\n        /* \"#utility.yul\":8695:8771   */\n      swap2\n      swap1\n      pop\n      jump\t// out\n        /* \"#utility.yul\":8777:8897   */\n    tag_121:\n        /* \"#utility.yul\":8849:8872   */\n      tag_211\n        /* \"#utility.yul\":8866:8871   */\n      dup2\n        /* \"#utility.yul\":8849:8872   */\n      tag_120\n      jump\t// in\n    tag_211:\n        /* \"#utility.yul\":8842:8847   */\n      dup2\n        /* \"#utility.yul\":8839:8873   */\n      eq\n        /* \"#utility.yul\":8829:8891   */\n      tag_212\n      jumpi\n        /* \"#utility.yul\":8887:8888   */\n      0x00\n        /* \"#utility.yul\":8884:8885   */\n      dup1\n        /* \"#utility.yul\":8877:8889   */\n      revert\n        /* \"#utility.yul\":8829:8891   */\n    tag_212:\n        /* \"#utility.yul\":8777:8897   */\n      pop\n      jump\t// out\n        /* \"#utility.yul\":8903:9044   */\n    tag_122:\n        /* \"#utility.yul\":8959:8964   */\n      0x00\n        /* \"#utility.yul\":8990:8996   */\n      dup2\n        /* \"#utility.yul\":8984:8997   */\n      mload\n        /* \"#utility.yul\":8975:8997   */\n      swap1\n      pop\n        /* \"#utility.yul\":9006:9038   */\n      tag_214\n        /* \"#utility.yul\":9032:9037   */\n      dup2\n        /* \"#utility.yul\":9006:9038   */\n      tag_121\n      jump\t// in\n    tag_214:\n        /* \"#utility.yul\":8903:9044   */\n      swap3\n      swap2\n      pop\n      pop\n      jump\t// out\n        /* \"#utility.yul\":9050:9193   */\n    tag_123:\n        /* \"#utility.yul\":9107:9112   */\n      0x00\n        /* \"#utility.yul\":9138:9144   */\n      dup2\n        /* \"#utility.yul\":9132:9145   */\n      mload\n        /* \"#utility.yul\":9123:9145   */\n      swap1\n      pop\n        /* \"#utility.yul\":9154:9187   */\n      tag_216\n        /* \"#utility.yul\":9181:9186   */\n      dup2\n        /* \"#utility.yul\":9154:9187   */\n      tag_103\n      jump\t// in\n    tag_216:\n        /* \"#utility.yul\":9050:9193   */\n      swap3\n      swap2\n      pop\n      pop\n      jump\t// out\n        /* \"#utility.yul\":9199:10170   */\n    tag_83:\n        /* \"#utility.yul\":9302:9308   */\n      0x00\n        /* \"#utility.yul\":9310:9316   */\n      dup1\n        /* \"#utility.yul\":9318:9324   */\n      0x00\n        /* \"#utility.yul\":9326:9332   */\n      dup1\n        /* \"#utility.yul\":9334:9340   */\n      0x00\n        /* \"#utility.yul\":9383:9386   */\n      0xa0\n        /* \"#utility.yul\":9371:9380   */\n      dup7\n        /* \"#utility.yul\":9362:9369   */\n      dup9\n        /* \"#utility.yul\":9358:9381   */\n      sub\n        /* \"#utility.yul\":9354:9387   */\n      slt\n        /* \"#utility.yul\":9351:9471   */\n      iszero\n      tag_218\n      jumpi\n        /* \"#utility.yul\":9390:9469   */\n      tag_219\n      tag_96\n      jump\t// in\n    tag_219:\n        /* \"#utility.yul\":9351:9471   */\n    tag_218:\n        /* \"#utility.yul\":9510:9511   */\n      0x00\n        /* \"#utility.yul\":9535:9598   */\n      tag_220\n        /* \"#utility.yul\":9590:9597   */\n      dup9\n        /* \"#utility.yul\":9581:9587   */\n      dup3\n        /* \"#utility.yul\":9570:9579   */\n      dup10\n        /* \"#utility.yul\":9566:9588   */\n      add\n        /* \"#utility.yul\":9535:9598   */\n      tag_119\n      jump\t// in\n    tag_220:\n        /* \"#utility.yul\":9525:9598   */\n      swap6\n      pop\n        /* \"#utility.yul\":9481:9608   */\n      pop\n        /* \"#utility.yul\":9647:9649   */\n      0x20\n        /* \"#utility.yul\":9673:9736   */\n      tag_221\n        /* \"#utility.yul\":9728:9735   */\n      dup9\n        /* \"#utility.yul\":9719:9725   */\n      dup3\n        /* \"#utility.yul\":9708:9717   */\n      dup10\n        /* \"#utility.yul\":9704:9726   */\n      add\n        /* \"#utility.yul\":9673:9736   */\n      tag_122\n      jump\t// in\n    tag_221:\n        /* \"#utility.yul\":9663:9736   */\n      swap5\n      pop\n        /* \"#utility.yul\":9618:9746   */\n      pop\n        /* \"#utility.yul\":9785:9787   */\n      0x40\n        /* \"#utility.yul\":9811:9875   */\n      tag_222\n        /* \"#utility.yul\":9867:9874   */\n      dup9\n        /* \"#utility.yul\":9858:9864   */\n      dup3\n        /* \"#utility.yul\":9847:9856   */\n      dup10\n        /* \"#utility.yul\":9843:9865   */\n      add\n        /* \"#utility.yul\":9811:9875   */\n      tag_123\n      jump\t// in\n    tag_222:\n        /* \"#utility.yul\":9801:9875   */\n      swap4\n      pop\n        /* \"#utility.yul\":9756:9885   */\n      pop\n        /* \"#utility.yul\":9924:9926   */\n      0x60\n        /* \"#utility.yul\":9950:10014   */\n      tag_223\n        /* \"#utility.yul\":10006:10013   */\n      dup9\n        /* \"#utility.yul\":9997:10003   */\n      dup3\n        /* \"#utility.yul\":9986:9995   */\n      dup10\n        /* \"#utility.yul\":9982:10004   */\n      add\n        /* \"#utility.yul\":9950:10014   */\n      tag_123\n      jump\t// in\n    tag_223:\n        /* \"#utility.yul\":9940:10014   */\n      swap3\n      pop\n        /* \"#utility.yul\":9895:10024   */\n      pop\n        /* \"#utility.yul\":10063:10066   */\n      0x80\n        /* \"#utility.yul\":10090:10153   */\n      tag_224\n        /* \"#utility.yul\":10145:10152   */\n      dup9\n        /* \"#utility.yul\":10136:10142   */\n      dup3\n        /* \"#utility.yul\":10125:10134   */\n      dup10\n        /* \"#utility.yul\":10121:10143   */\n      add\n        /* \"#utility.yul\":10090:10153   */\n      tag_119\n      jump\t// in\n    tag_224:\n        /* \"#utility.yul\":10080:10153   */\n      swap2\n      pop\n        /* \"#utility.yul\":10034:10163   */\n      pop\n        /* \"#utility.yul\":9199:10170   */\n      swap3\n      swap6\n      pop\n      swap3\n      swap6\n      swap1\n      swap4\n      pop\n      jump\t// out\n        /* \"#utility.yul\":10176:10732   */\n    tag_85:\n        /* \"#utility.yul\":10215:10222   */\n      0x00\n        /* \"#utility.yul\":10238:10257   */\n      tag_226\n        /* \"#utility.yul\":10255:10256   */\n      dup3\n        /* \"#utility.yul\":10238:10257   */\n      tag_120\n      jump\t// in\n    tag_226:\n        /* \"#utility.yul\":10233:10257   */\n      swap2\n      pop\n        /* \"#utility.yul\":10271:10290   */\n      tag_227\n        /* \"#utility.yul\":10288:10289   */\n      dup4\n        /* \"#utility.yul\":10271:10290   */\n      tag_120\n      jump\t// in\n    tag_227:\n        /* \"#utility.yul\":10266:10290   */\n      swap3\n      pop\n        /* \"#utility.yul\":10325:10326   */\n      dup3\n        /* \"#utility.yul\":10322:10323   */\n      dup3\n        /* \"#utility.yul\":10318:10327   */\n      mul\n        /* \"#utility.yul\":10347:10376   */\n      tag_228\n        /* \"#utility.yul\":10364:10375   */\n      dup2\n        /* \"#utility.yul\":10347:10376   */\n      tag_120\n      jump\t// in\n    tag_228:\n        /* \"#utility.yul\":10336:10376   */\n      swap2\n      pop\n        /* \"#utility.yul\":10434:10500   */\n      0x8000000000000000000000000000000000000000000000000000000000000000\n        /* \"#utility.yul\":10431:10432   */\n      dup5\n        /* \"#utility.yul\":10428:10501   */\n      eq\n        /* \"#utility.yul\":10424:10425   */\n      0x00\n        /* \"#utility.yul\":10421:10422   */\n      dup5\n        /* \"#utility.yul\":10417:10426   */\n      slt\n        /* \"#utility.yul\":10413:10502   */\n      and\n        /* \"#utility.yul\":10410:10525   */\n      iszero\n      tag_229\n      jumpi\n        /* \"#utility.yul\":10505:10523   */\n      tag_230\n      tag_110\n      jump\t// in\n    tag_230:\n        /* \"#utility.yul\":10410:10525   */\n    tag_229:\n        /* \"#utility.yul\":10675:10676   */\n      dup3\n        /* \"#utility.yul\":10666:10673   */\n      dup3\n        /* \"#utility.yul\":10661:10677   */\n      sdiv\n        /* \"#utility.yul\":10658:10659   */\n      dup5\n        /* \"#utility.yul\":10655:10678   */\n      eq\n        /* \"#utility.yul\":10635:10636   */\n      dup4\n        /* \"#utility.yul\":10628:10637   */\n      iszero\n        /* \"#utility.yul\":10608:10692   */\n      or\n        /* \"#utility.yul\":10585:10725   */\n      tag_231\n      jumpi\n        /* \"#utility.yul\":10705:10723   */\n      tag_232\n      tag_110\n      jump\t// in\n    tag_232:\n        /* \"#utility.yul\":10585:10725   */\n    tag_231:\n        /* \"#utility.yul\":10223:10732   */\n      pop\n        /* \"#utility.yul\":10176:10732   */\n      swap3\n      swap2\n      pop\n      pop\n      jump\t// out\n\n    auxdata: 0xa264697066735822122034c702a52c54f984de2e43e0cff08eb389b8c4a7a2c2278c4e6a2efe85950a0364736f6c63430008110033\n}\n",
				"bytecode": {
					"linkReferences": {},
					"object": "60806040526802b5e3af16b188000060005534801561001d57600080fd5b5033600360006101000a81548173ffffffffffffffffffffffffffffffffffffffff021916908373ffffffffffffffffffffffffffffffffffffffff160217905550610ca98061006e6000396000f3fe6080604052600436106100555760003560e01c80633430a88c1461005a5780633e47d6f3146100855780638da5cb5b146100c2578063b60d4288146100ed578063dc0d3dff146100f7578063e07fa3c114610134575b600080fd5b34801561006657600080fd5b5061006f61014b565b60405161007c91906106b3565b60405180910390f35b34801561009157600080fd5b506100ac60048036038101906100a79190610731565b610151565b6040516100b991906106b3565b60405180910390f35b3480156100ce57600080fd5b506100d7610169565b6040516100e4919061076d565b60405180910390f35b6100f561018f565b005b34801561010357600080fd5b5061011e600480360381019061011991906107b4565b610285565b60405161012b919061076d565b60405180910390f35b34801561014057600080fd5b506101496102c4565b005b60005481565b60026020528060005260406000206000915090505481565b600360009054906101000a900473ffffffffffffffffffffffffffffffffffffffff1681565b60005461019b34610510565b10156101dc576040517f08c379a00000000000000000000000000000000000000000000000000000000081526004016101d39061083e565b60405180910390fd5b6001339080600181540180825580915050600190039060005260206000200160009091909190916101000a81548173ffffffffffffffffffffffffffffffffffffffff021916908373ffffffffffffffffffffffffffffffffffffffff16021790555034600260003373ffffffffffffffffffffffffffffffffffffffff1673ffffffffffffffffffffffffffffffffffffffff16815260200190815260200160002081905550565b6001818154811061029557600080fd5b906000526020600020016000915054906101000a900473ffffffffffffffffffffffffffffffffffffffff1681565b600360009054906101000a900473ffffffffffffffffffffffffffffffffffffffff1673ffffffffffffffffffffffffffffffffffffffff163373ffffffffffffffffffffffffffffffffffffffff1614610354576040517f08c379a000000000000000000000000000000000000000000000000000000000815260040161034b906108aa565b60405180910390fd5b60005b6001805490508110156104005760006001828154811061037a576103796108ca565b5b9060005260206000200160009054906101000a900473ffffffffffffffffffffffffffffffffffffffff1690506000600260008373ffffffffffffffffffffffffffffffffffffffff1673ffffffffffffffffffffffffffffffffffffffff168152602001908152602001600020819055505080806103f890610928565b915050610357565b50600067ffffffffffffffff81111561041c5761041b610970565b5b60405190808252806020026020018201604052801561044a5781602001602082028036833780820191505090505b50600190805190602001906104609291906105f3565b5060003373ffffffffffffffffffffffffffffffffffffffff1647604051610487906109d0565b60006040518083038185875af1925050503d80600081146104c4576040519150601f19603f3d011682016040523d82523d6000602084013e6104c9565b606091505b505090508061050d576040517f08c379a000000000000000000000000000000000000000000000000000000000815260040161050490610a31565b60405180910390fd5b50565b60008061051b61054a565b90506000670de0b6b3a764000084836105349190610a51565b61053e9190610ac2565b90508092505050919050565b60008073d4a33860578de61dbabdc8bfdb98fd742fa7028e905060008173ffffffffffffffffffffffffffffffffffffffff1663feaf968c6040518163ffffffff1660e01b815260040160a060405180830381865afa1580156105b1573d6000803e3d6000fd5b505050506040513d601f19601f820116820180604052508101906105d59190610b80565b5050509150506402540be400816105ec9190610bfb565b9250505090565b82805482825590600052602060002090810192821561066c579160200282015b8281111561066b5782518260006101000a81548173ffffffffffffffffffffffffffffffffffffffff021916908373ffffffffffffffffffffffffffffffffffffffff16021790555091602001919060010190610613565b5b509050610679919061067d565b5090565b5b8082111561069657600081600090555060010161067e565b5090565b6000819050919050565b6106ad8161069a565b82525050565b60006020820190506106c860008301846106a4565b92915050565b600080fd5b600073ffffffffffffffffffffffffffffffffffffffff82169050919050565b60006106fe826106d3565b9050919050565b61070e816106f3565b811461071957600080fd5b50565b60008135905061072b81610705565b92915050565b600060208284031215610747576107466106ce565b5b60006107558482850161071c565b91505092915050565b610767816106f3565b82525050565b6000602082019050610782600083018461075e565b92915050565b6107918161069a565b811461079c57600080fd5b50565b6000813590506107ae81610788565b92915050565b6000602082840312156107ca576107c96106ce565b5b60006107d88482850161079f565b91505092915050565b600082825260208201905092915050565b7f4469646e27742073656e6420656e6f7567682065746865720000000000000000600082015250565b60006108286018836107e1565b9150610833826107f2565b602082019050919050565b600060208201905081810360008301526108578161081b565b9050919050565b7f53656e646572206973206e6f74206f776e657200000000000000000000000000600082015250565b60006108946013836107e1565b915061089f8261085e565b602082019050919050565b600060208201905081810360008301526108c381610887565b9050919050565b7f4e487b7100000000000000000000000000000000000000000000000000000000600052603260045260246000fd5b7f4e487b7100000000000000000000000000000000000000000000000000000000600052601160045260246000fd5b60006109338261069a565b91507fffffffffffffffffffffffffffffffffffffffffffffffffffffffffffffffff8203610965576109646108f9565b5b600182019050919050565b7f4e487b7100000000000000000000000000000000000000000000000000000000600052604160045260246000fd5b600081905092915050565b50565b60006109ba60008361099f565b91506109c5826109aa565b600082019050919050565b60006109db826109ad565b9150819050919050565b7f43616c6c206661696c6564000000000000000000000000000000000000000000600082015250565b6000610a1b600b836107e1565b9150610a26826109e5565b602082019050919050565b60006020820190508181036000830152610a4a81610a0e565b9050919050565b6000610a5c8261069a565b9150610a678361069a565b9250828202610a758161069a565b91508282048414831517610a8c57610a8b6108f9565b5b5092915050565b7f4e487b7100000000000000000000000000000000000000000000000000000000600052601260045260246000fd5b6000610acd8261069a565b9150610ad88361069a565b925082610ae857610ae7610a93565b5b828204905092915050565b600069ffffffffffffffffffff82169050919050565b610b1281610af3565b8114610b1d57600080fd5b50565b600081519050610b2f81610b09565b92915050565b6000819050919050565b610b4881610b35565b8114610b5357600080fd5b50565b600081519050610b6581610b3f565b92915050565b600081519050610b7a81610788565b92915050565b600080600080600060a08688031215610b9c57610b9b6106ce565b5b6000610baa88828901610b20565b9550506020610bbb88828901610b56565b9450506040610bcc88828901610b6b565b9350506060610bdd88828901610b6b565b9250506080610bee88828901610b20565b9150509295509295909350565b6000610c0682610b35565b9150610c1183610b35565b9250828202610c1f81610b35565b91507f80000000000000000000000000000000000000000000000000000000000000008414600084121615610c5757610c566108f9565b5b8282058414831517610c6c57610c6b6108f9565b5b509291505056fea264697066735822122034c702a52c54f984de2e43e0cff08eb389b8c4a7a2c2278c4e6a2efe85950a0364736f6c63430008110033",
					"opcodes": "PUSH1 0x80 PUSH1 0x40 MSTORE PUSH9 0x2B5E3AF16B1880000 PUSH1 0x0 SSTORE CALLVALUE DUP1 ISZERO PUSH2 0x1D JUMPI PUSH1 0x0 DUP1 REVERT JUMPDEST POP CALLER PUSH1 0x3 PUSH1 0x0 PUSH2 0x100 EXP DUP2 SLOAD DUP2 PUSH20 0xFFFFFFFFFFFFFFFFFFFFFFFFFFFFFFFFFFFFFFFF MUL NOT AND SWAP1 DUP4 PUSH20 0xFFFFFFFFFFFFFFFFFFFFFFFFFFFFFFFFFFFFFFFF AND MUL OR SWAP1 SSTORE POP PUSH2 0xCA9 DUP1 PUSH2 0x6E PUSH1 0x0 CODECOPY PUSH1 0x0 RETURN INVALID PUSH1 0x80 PUSH1 0x40 MSTORE PUSH1 0x4 CALLDATASIZE LT PUSH2 0x55 JUMPI PUSH1 0x0 CALLDATALOAD PUSH1 0xE0 SHR DUP1 PUSH4 0x3430A88C EQ PUSH2 0x5A JUMPI DUP1 PUSH4 0x3E47D6F3 EQ PUSH2 0x85 JUMPI DUP1 PUSH4 0x8DA5CB5B EQ PUSH2 0xC2 JUMPI DUP1 PUSH4 0xB60D4288 EQ PUSH2 0xED JUMPI DUP1 PUSH4 0xDC0D3DFF EQ PUSH2 0xF7 JUMPI DUP1 PUSH4 0xE07FA3C1 EQ PUSH2 0x134 JUMPI JUMPDEST PUSH1 0x0 DUP1 REVERT JUMPDEST CALLVALUE DUP1 ISZERO PUSH2 0x66 JUMPI PUSH1 0x0 DUP1 REVERT JUMPDEST POP PUSH2 0x6F PUSH2 0x14B JUMP JUMPDEST PUSH1 0x40 MLOAD PUSH2 0x7C SWAP2 SWAP1 PUSH2 0x6B3 JUMP JUMPDEST PUSH1 0x40 MLOAD DUP1 SWAP2 SUB SWAP1 RETURN JUMPDEST CALLVALUE DUP1 ISZERO PUSH2 0x91 JUMPI PUSH1 0x0 DUP1 REVERT JUMPDEST POP PUSH2 0xAC PUSH1 0x4 DUP1 CALLDATASIZE SUB DUP2 ADD SWAP1 PUSH2 0xA7 SWAP2 SWAP1 PUSH2 0x731 JUMP JUMPDEST PUSH2 0x151 JUMP JUMPDEST PUSH1 0x40 MLOAD PUSH2 0xB9 SWAP2 SWAP1 PUSH2 0x6B3 JUMP JUMPDEST PUSH1 0x40 MLOAD DUP1 SWAP2 SUB SWAP1 RETURN JUMPDEST CALLVALUE DUP1 ISZERO PUSH2 0xCE JUMPI PUSH1 0x0 DUP1 REVERT JUMPDEST POP PUSH2 0xD7 PUSH2 0x169 JUMP JUMPDEST PUSH1 0x40 MLOAD PUSH2 0xE4 SWAP2 SWAP1 PUSH2 0x76D JUMP JUMPDEST PUSH1 0x40 MLOAD DUP1 SWAP2 SUB SWAP1 RETURN JUMPDEST PUSH2 0xF5 PUSH2 0x18F JUMP JUMPDEST STOP JUMPDEST CALLVALUE DUP1 ISZERO PUSH2 0x103 JUMPI PUSH1 0x0 DUP1 REVERT JUMPDEST POP PUSH2 0x11E PUSH1 0x4 DUP1 CALLDATASIZE SUB DUP2 ADD SWAP1 PUSH2 0x119 SWAP2 SWAP1 PUSH2 0x7B4 JUMP JUMPDEST PUSH2 0x285 JUMP JUMPDEST PUSH1 0x40 MLOAD PUSH2 0x12B SWAP2 SWAP1 PUSH2 0x76D JUMP JUMPDEST PUSH1 0x40 MLOAD DUP1 SWAP2 SUB SWAP1 RETURN JUMPDEST CALLVALUE DUP1 ISZERO PUSH2 0x140 JUMPI PUSH1 0x0 DUP1 REVERT JUMPDEST POP PUSH2 0x149 PUSH2 0x2C4 JUMP JUMPDEST STOP JUMPDEST PUSH1 0x0 SLOAD DUP2 JUMP JUMPDEST PUSH1 0x2 PUSH1 0x20 MSTORE DUP1 PUSH1 0x0 MSTORE PUSH1 0x40 PUSH1 0x0 KECCAK256 PUSH1 0x0 SWAP2 POP SWAP1 POP SLOAD DUP2 JUMP JUMPDEST PUSH1 0x3 PUSH1 0x0 SWAP1 SLOAD SWAP1 PUSH2 0x100 EXP SWAP1 DIV PUSH20 0xFFFFFFFFFFFFFFFFFFFFFFFFFFFFFFFFFFFFFFFF AND DUP2 JUMP JUMPDEST PUSH1 0x0 SLOAD PUSH2 0x19B CALLVALUE PUSH2 0x510 JUMP JUMPDEST LT ISZERO PUSH2 0x1DC JUMPI PUSH1 0x40 MLOAD PUSH32 0x8C379A000000000000000000000000000000000000000000000000000000000 DUP2 MSTORE PUSH1 0x4 ADD PUSH2 0x1D3 SWAP1 PUSH2 0x83E JUMP JUMPDEST PUSH1 0x40 MLOAD DUP1 SWAP2 SUB SWAP1 REVERT JUMPDEST PUSH1 0x1 CALLER SWAP1 DUP1 PUSH1 0x1 DUP2 SLOAD ADD DUP1 DUP3 SSTORE DUP1 SWAP2 POP POP PUSH1 0x1 SWAP1 SUB SWAP1 PUSH1 0x0 MSTORE PUSH1 0x20 PUSH1 0x0 KECCAK256 ADD PUSH1 0x0 SWAP1 SWAP2 SWAP1 SWAP2 SWAP1 SWAP2 PUSH2 0x100 EXP DUP2 SLOAD DUP2 PUSH20 0xFFFFFFFFFFFFFFFFFFFFFFFFFFFFFFFFFFFFFFFF MUL NOT AND SWAP1 DUP4 PUSH20 0xFFFFFFFFFFFFFFFFFFFFFFFFFFFFFFFFFFFFFFFF AND MUL OR SWAP1 SSTORE POP CALLVALUE PUSH1 0x2 PUSH1 0x0 CALLER PUSH20 0xFFFFFFFFFFFFFFFFFFFFFFFFFFFFFFFFFFFFFFFF AND PUSH20 0xFFFFFFFFFFFFFFFFFFFFFFFFFFFFFFFFFFFFFFFF AND DUP2 MSTORE PUSH1 0x20 ADD SWAP1 DUP2 MSTORE PUSH1 0x20 ADD PUSH1 0x0 KECCAK256 DUP2 SWAP1 SSTORE POP JUMP JUMPDEST PUSH1 0x1 DUP2 DUP2 SLOAD DUP2 LT PUSH2 0x295 JUMPI PUSH1 0x0 DUP1 REVERT JUMPDEST SWAP1 PUSH1 0x0 MSTORE PUSH1 0x20 PUSH1 0x0 KECCAK256 ADD PUSH1 0x0 SWAP2 POP SLOAD SWAP1 PUSH2 0x100 EXP SWAP1 DIV PUSH20 0xFFFFFFFFFFFFFFFFFFFFFFFFFFFFFFFFFFFFFFFF AND DUP2 JUMP JUMPDEST PUSH1 0x3 PUSH1 0x0 SWAP1 SLOAD SWAP1 PUSH2 0x100 EXP SWAP1 DIV PUSH20 0xFFFFFFFFFFFFFFFFFFFFFFFFFFFFFFFFFFFFFFFF AND PUSH20 0xFFFFFFFFFFFFFFFFFFFFFFFFFFFFFFFFFFFFFFFF AND CALLER PUSH20 0xFFFFFFFFFFFFFFFFFFFFFFFFFFFFFFFFFFFFFFFF AND EQ PUSH2 0x354 JUMPI PUSH1 0x40 MLOAD PUSH32 0x8C379A000000000000000000000000000000000000000000000000000000000 DUP2 MSTORE PUSH1 0x4 ADD PUSH2 0x34B SWAP1 PUSH2 0x8AA JUMP JUMPDEST PUSH1 0x40 MLOAD DUP1 SWAP2 SUB SWAP1 REVERT JUMPDEST PUSH1 0x0 JUMPDEST PUSH1 0x1 DUP1 SLOAD SWAP1 POP DUP2 LT ISZERO PUSH2 0x400 JUMPI PUSH1 0x0 PUSH1 0x1 DUP3 DUP2 SLOAD DUP2 LT PUSH2 0x37A JUMPI PUSH2 0x379 PUSH2 0x8CA JUMP JUMPDEST JUMPDEST SWAP1 PUSH1 0x0 MSTORE PUSH1 0x20 PUSH1 0x0 KECCAK256 ADD PUSH1 0x0 SWAP1 SLOAD SWAP1 PUSH2 0x100 EXP SWAP1 DIV PUSH20 0xFFFFFFFFFFFFFFFFFFFFFFFFFFFFFFFFFFFFFFFF AND SWAP1 POP PUSH1 0x0 PUSH1 0x2 PUSH1 0x0 DUP4 PUSH20 0xFFFFFFFFFFFFFFFFFFFFFFFFFFFFFFFFFFFFFFFF AND PUSH20 0xFFFFFFFFFFFFFFFFFFFFFFFFFFFFFFFFFFFFFFFF AND DUP2 MSTORE PUSH1 0x20 ADD SWAP1 DUP2 MSTORE PUSH1 0x20 ADD PUSH1 0x0 KECCAK256 DUP2 SWAP1 SSTORE POP POP DUP1 DUP1 PUSH2 0x3F8 SWAP1 PUSH2 0x928 JUMP JUMPDEST SWAP2 POP POP PUSH2 0x357 JUMP JUMPDEST POP PUSH1 0x0 PUSH8 0xFFFFFFFFFFFFFFFF DUP2 GT ISZERO PUSH2 0x41C JUMPI PUSH2 0x41B PUSH2 0x970 JUMP JUMPDEST JUMPDEST PUSH1 0x40 MLOAD SWAP1 DUP1 DUP3 MSTORE DUP1 PUSH1 0x20 MUL PUSH1 0x20 ADD DUP3 ADD PUSH1 0x40 MSTORE DUP1 ISZERO PUSH2 0x44A JUMPI DUP2 PUSH1 0x20 ADD PUSH1 0x20 DUP3 MUL DUP1 CALLDATASIZE DUP4 CALLDATACOPY DUP1 DUP3 ADD SWAP2 POP POP SWAP1 POP JUMPDEST POP PUSH1 0x1 SWAP1 DUP1 MLOAD SWAP1 PUSH1 0x20 ADD SWAP1 PUSH2 0x460 SWAP3 SWAP2 SWAP1 PUSH2 0x5F3 JUMP JUMPDEST POP PUSH1 0x0 CALLER PUSH20 0xFFFFFFFFFFFFFFFFFFFFFFFFFFFFFFFFFFFFFFFF AND SELFBALANCE PUSH1 0x40 MLOAD PUSH2 0x487 SWAP1 PUSH2 0x9D0 JUMP JUMPDEST PUSH1 0x0 PUSH1 0x40 MLOAD DUP1 DUP4 SUB DUP2 DUP6 DUP8 GAS CALL SWAP3 POP POP POP RETURNDATASIZE DUP1 PUSH1 0x0 DUP2 EQ PUSH2 0x4C4 JUMPI PUSH1 0x40 MLOAD SWAP2 POP PUSH1 0x1F NOT PUSH1 0x3F RETURNDATASIZE ADD AND DUP3 ADD PUSH1 0x40 MSTORE RETURNDATASIZE DUP3 MSTORE RETURNDATASIZE PUSH1 0x0 PUSH1 0x20 DUP5 ADD RETURNDATACOPY PUSH2 0x4C9 JUMP JUMPDEST PUSH1 0x60 SWAP2 POP JUMPDEST POP POP SWAP1 POP DUP1 PUSH2 0x50D JUMPI PUSH1 0x40 MLOAD PUSH32 0x8C379A000000000000000000000000000000000000000000000000000000000 DUP2 MSTORE PUSH1 0x4 ADD PUSH2 0x504 SWAP1 PUSH2 0xA31 JUMP JUMPDEST PUSH1 0x40 MLOAD DUP1 SWAP2 SUB SWAP1 REVERT JUMPDEST POP JUMP JUMPDEST PUSH1 0x0 DUP1 PUSH2 0x51B PUSH2 0x54A JUMP JUMPDEST SWAP1 POP PUSH1 0x0 PUSH8 0xDE0B6B3A7640000 DUP5 DUP4 PUSH2 0x534 SWAP2 SWAP1 PUSH2 0xA51 JUMP JUMPDEST PUSH2 0x53E SWAP2 SWAP1 PUSH2 0xAC2 JUMP JUMPDEST SWAP1 POP DUP1 SWAP3 POP POP POP SWAP2 SWAP1 POP JUMP JUMPDEST PUSH1 0x0 DUP1 PUSH20 0xD4A33860578DE61DBABDC8BFDB98FD742FA7028E SWAP1 POP PUSH1 0x0 DUP2 PUSH20 0xFFFFFFFFFFFFFFFFFFFFFFFFFFFFFFFFFFFFFFFF AND PUSH4 0xFEAF968C PUSH1 0x40 MLOAD DUP2 PUSH4 0xFFFFFFFF AND PUSH1 0xE0 SHL DUP2 MSTORE PUSH1 0x4 ADD PUSH1 0xA0 PUSH1 0x40 MLOAD DUP1 DUP4 SUB DUP2 DUP7 GAS STATICCALL ISZERO DUP1 ISZERO PUSH2 0x5B1 JUMPI RETURNDATASIZE PUSH1 0x0 DUP1 RETURNDATACOPY RETURNDATASIZE PUSH1 0x0 REVERT JUMPDEST POP POP POP POP PUSH1 0x40 MLOAD RETURNDATASIZE PUSH1 0x1F NOT PUSH1 0x1F DUP3 ADD AND DUP3 ADD DUP1 PUSH1 0x40 MSTORE POP DUP2 ADD SWAP1 PUSH2 0x5D5 SWAP2 SWAP1 PUSH2 0xB80 JUMP JUMPDEST POP POP POP SWAP2 POP POP PUSH5 0x2540BE400 DUP2 PUSH2 0x5EC SWAP2 SWAP1 PUSH2 0xBFB JUMP JUMPDEST SWAP3 POP POP POP SWAP1 JUMP JUMPDEST DUP3 DUP1 SLOAD DUP3 DUP3 SSTORE SWAP1 PUSH1 0x0 MSTORE PUSH1 0x20 PUSH1 0x0 KECCAK256 SWAP1 DUP2 ADD SWAP3 DUP3 ISZERO PUSH2 0x66C JUMPI SWAP2 PUSH1 0x20 MUL DUP3 ADD JUMPDEST DUP3 DUP2 GT ISZERO PUSH2 0x66B JUMPI DUP3 MLOAD DUP3 PUSH1 0x0 PUSH2 0x100 EXP DUP2 SLOAD DUP2 PUSH20 0xFFFFFFFFFFFFFFFFFFFFFFFFFFFFFFFFFFFFFFFF MUL NOT AND SWAP1 DUP4 PUSH20 0xFFFFFFFFFFFFFFFFFFFFFFFFFFFFFFFFFFFFFFFF AND MUL OR SWAP1 SSTORE POP SWAP2 PUSH1 0x20 ADD SWAP2 SWAP1 PUSH1 0x1 ADD SWAP1 PUSH2 0x613 JUMP JUMPDEST JUMPDEST POP SWAP1 POP PUSH2 0x679 SWAP2 SWAP1 PUSH2 0x67D JUMP JUMPDEST POP SWAP1 JUMP JUMPDEST JUMPDEST DUP1 DUP3 GT ISZERO PUSH2 0x696 JUMPI PUSH1 0x0 DUP2 PUSH1 0x0 SWAP1 SSTORE POP PUSH1 0x1 ADD PUSH2 0x67E JUMP JUMPDEST POP SWAP1 JUMP JUMPDEST PUSH1 0x0 DUP2 SWAP1 POP SWAP2 SWAP1 POP JUMP JUMPDEST PUSH2 0x6AD DUP2 PUSH2 0x69A JUMP JUMPDEST DUP3 MSTORE POP POP JUMP JUMPDEST PUSH1 0x0 PUSH1 0x20 DUP3 ADD SWAP1 POP PUSH2 0x6C8 PUSH1 0x0 DUP4 ADD DUP5 PUSH2 0x6A4 JUMP JUMPDEST SWAP3 SWAP2 POP POP JUMP JUMPDEST PUSH1 0x0 DUP1 REVERT JUMPDEST PUSH1 0x0 PUSH20 0xFFFFFFFFFFFFFFFFFFFFFFFFFFFFFFFFFFFFFFFF DUP3 AND SWAP1 POP SWAP2 SWAP1 POP JUMP JUMPDEST PUSH1 0x0 PUSH2 0x6FE DUP3 PUSH2 0x6D3 JUMP JUMPDEST SWAP1 POP SWAP2 SWAP1 POP JUMP JUMPDEST PUSH2 0x70E DUP2 PUSH2 0x6F3 JUMP JUMPDEST DUP2 EQ PUSH2 0x719 JUMPI PUSH1 0x0 DUP1 REVERT JUMPDEST POP JUMP JUMPDEST PUSH1 0x0 DUP2 CALLDATALOAD SWAP1 POP PUSH2 0x72B DUP2 PUSH2 0x705 JUMP JUMPDEST SWAP3 SWAP2 POP POP JUMP JUMPDEST PUSH1 0x0 PUSH1 0x20 DUP3 DUP5 SUB SLT ISZERO PUSH2 0x747 JUMPI PUSH2 0x746 PUSH2 0x6CE JUMP JUMPDEST JUMPDEST PUSH1 0x0 PUSH2 0x755 DUP5 DUP3 DUP6 ADD PUSH2 0x71C JUMP JUMPDEST SWAP2 POP POP SWAP3 SWAP2 POP POP JUMP JUMPDEST PUSH2 0x767 DUP2 PUSH2 0x6F3 JUMP JUMPDEST DUP3 MSTORE POP POP JUMP JUMPDEST PUSH1 0x0 PUSH1 0x20 DUP3 ADD SWAP1 POP PUSH2 0x782 PUSH1 0x0 DUP4 ADD DUP5 PUSH2 0x75E JUMP JUMPDEST SWAP3 SWAP2 POP POP JUMP JUMPDEST PUSH2 0x791 DUP2 PUSH2 0x69A JUMP JUMPDEST DUP2 EQ PUSH2 0x79C JUMPI PUSH1 0x0 DUP1 REVERT JUMPDEST POP JUMP JUMPDEST PUSH1 0x0 DUP2 CALLDATALOAD SWAP1 POP PUSH2 0x7AE DUP2 PUSH2 0x788 JUMP JUMPDEST SWAP3 SWAP2 POP POP JUMP JUMPDEST PUSH1 0x0 PUSH1 0x20 DUP3 DUP5 SUB SLT ISZERO PUSH2 0x7CA JUMPI PUSH2 0x7C9 PUSH2 0x6CE JUMP JUMPDEST JUMPDEST PUSH1 0x0 PUSH2 0x7D8 DUP5 DUP3 DUP6 ADD PUSH2 0x79F JUMP JUMPDEST SWAP2 POP POP SWAP3 SWAP2 POP POP JUMP JUMPDEST PUSH1 0x0 DUP3 DUP3 MSTORE PUSH1 0x20 DUP3 ADD SWAP1 POP SWAP3 SWAP2 POP POP JUMP JUMPDEST PUSH32 0x4469646E27742073656E6420656E6F7567682065746865720000000000000000 PUSH1 0x0 DUP3 ADD MSTORE POP JUMP JUMPDEST PUSH1 0x0 PUSH2 0x828 PUSH1 0x18 DUP4 PUSH2 0x7E1 JUMP JUMPDEST SWAP2 POP PUSH2 0x833 DUP3 PUSH2 0x7F2 JUMP JUMPDEST PUSH1 0x20 DUP3 ADD SWAP1 POP SWAP2 SWAP1 POP JUMP JUMPDEST PUSH1 0x0 PUSH1 0x20 DUP3 ADD SWAP1 POP DUP2 DUP2 SUB PUSH1 0x0 DUP4 ADD MSTORE PUSH2 0x857 DUP2 PUSH2 0x81B JUMP JUMPDEST SWAP1 POP SWAP2 SWAP1 POP JUMP JUMPDEST PUSH32 0x53656E646572206973206E6F74206F776E657200000000000000000000000000 PUSH1 0x0 DUP3 ADD MSTORE POP JUMP JUMPDEST PUSH1 0x0 PUSH2 0x894 PUSH1 0x13 DUP4 PUSH2 0x7E1 JUMP JUMPDEST SWAP2 POP PUSH2 0x89F DUP3 PUSH2 0x85E JUMP JUMPDEST PUSH1 0x20 DUP3 ADD SWAP1 POP SWAP2 SWAP1 POP JUMP JUMPDEST PUSH1 0x0 PUSH1 0x20 DUP3 ADD SWAP1 POP DUP2 DUP2 SUB PUSH1 0x0 DUP4 ADD MSTORE PUSH2 0x8C3 DUP2 PUSH2 0x887 JUMP JUMPDEST SWAP1 POP SWAP2 SWAP1 POP JUMP JUMPDEST PUSH32 0x4E487B7100000000000000000000000000000000000000000000000000000000 PUSH1 0x0 MSTORE PUSH1 0x32 PUSH1 0x4 MSTORE PUSH1 0x24 PUSH1 0x0 REVERT JUMPDEST PUSH32 0x4E487B7100000000000000000000000000000000000000000000000000000000 PUSH1 0x0 MSTORE PUSH1 0x11 PUSH1 0x4 MSTORE PUSH1 0x24 PUSH1 0x0 REVERT JUMPDEST PUSH1 0x0 PUSH2 0x933 DUP3 PUSH2 0x69A JUMP JUMPDEST SWAP2 POP PUSH32 0xFFFFFFFFFFFFFFFFFFFFFFFFFFFFFFFFFFFFFFFFFFFFFFFFFFFFFFFFFFFFFFFF DUP3 SUB PUSH2 0x965 JUMPI PUSH2 0x964 PUSH2 0x8F9 JUMP JUMPDEST JUMPDEST PUSH1 0x1 DUP3 ADD SWAP1 POP SWAP2 SWAP1 POP JUMP JUMPDEST PUSH32 0x4E487B7100000000000000000000000000000000000000000000000000000000 PUSH1 0x0 MSTORE PUSH1 0x41 PUSH1 0x4 MSTORE PUSH1 0x24 PUSH1 0x0 REVERT JUMPDEST PUSH1 0x0 DUP2 SWAP1 POP SWAP3 SWAP2 POP POP JUMP JUMPDEST POP JUMP JUMPDEST PUSH1 0x0 PUSH2 0x9BA PUSH1 0x0 DUP4 PUSH2 0x99F JUMP JUMPDEST SWAP2 POP PUSH2 0x9C5 DUP3 PUSH2 0x9AA JUMP JUMPDEST PUSH1 0x0 DUP3 ADD SWAP1 POP SWAP2 SWAP1 POP JUMP JUMPDEST PUSH1 0x0 PUSH2 0x9DB DUP3 PUSH2 0x9AD JUMP JUMPDEST SWAP2 POP DUP2 SWAP1 POP SWAP2 SWAP1 POP JUMP JUMPDEST PUSH32 0x43616C6C206661696C6564000000000000000000000000000000000000000000 PUSH1 0x0 DUP3 ADD MSTORE POP JUMP JUMPDEST PUSH1 0x0 PUSH2 0xA1B PUSH1 0xB DUP4 PUSH2 0x7E1 JUMP JUMPDEST SWAP2 POP PUSH2 0xA26 DUP3 PUSH2 0x9E5 JUMP JUMPDEST PUSH1 0x20 DUP3 ADD SWAP1 POP SWAP2 SWAP1 POP JUMP JUMPDEST PUSH1 0x0 PUSH1 0x20 DUP3 ADD SWAP1 POP DUP2 DUP2 SUB PUSH1 0x0 DUP4 ADD MSTORE PUSH2 0xA4A DUP2 PUSH2 0xA0E JUMP JUMPDEST SWAP1 POP SWAP2 SWAP1 POP JUMP JUMPDEST PUSH1 0x0 PUSH2 0xA5C DUP3 PUSH2 0x69A JUMP JUMPDEST SWAP2 POP PUSH2 0xA67 DUP4 PUSH2 0x69A JUMP JUMPDEST SWAP3 POP DUP3 DUP3 MUL PUSH2 0xA75 DUP2 PUSH2 0x69A JUMP JUMPDEST SWAP2 POP DUP3 DUP3 DIV DUP5 EQ DUP4 ISZERO OR PUSH2 0xA8C JUMPI PUSH2 0xA8B PUSH2 0x8F9 JUMP JUMPDEST JUMPDEST POP SWAP3 SWAP2 POP POP JUMP JUMPDEST PUSH32 0x4E487B7100000000000000000000000000000000000000000000000000000000 PUSH1 0x0 MSTORE PUSH1 0x12 PUSH1 0x4 MSTORE PUSH1 0x24 PUSH1 0x0 REVERT JUMPDEST PUSH1 0x0 PUSH2 0xACD DUP3 PUSH2 0x69A JUMP JUMPDEST SWAP2 POP PUSH2 0xAD8 DUP4 PUSH2 0x69A JUMP JUMPDEST SWAP3 POP DUP3 PUSH2 0xAE8 JUMPI PUSH2 0xAE7 PUSH2 0xA93 JUMP JUMPDEST JUMPDEST DUP3 DUP3 DIV SWAP1 POP SWAP3 SWAP2 POP POP JUMP JUMPDEST PUSH1 0x0 PUSH10 0xFFFFFFFFFFFFFFFFFFFF DUP3 AND SWAP1 POP SWAP2 SWAP1 POP JUMP JUMPDEST PUSH2 0xB12 DUP2 PUSH2 0xAF3 JUMP JUMPDEST DUP2 EQ PUSH2 0xB1D JUMPI PUSH1 0x0 DUP1 REVERT JUMPDEST POP JUMP JUMPDEST PUSH1 0x0 DUP2 MLOAD SWAP1 POP PUSH2 0xB2F DUP2 PUSH2 0xB09 JUMP JUMPDEST SWAP3 SWAP2 POP POP JUMP JUMPDEST PUSH1 0x0 DUP2 SWAP1 POP SWAP2 SWAP1 POP JUMP JUMPDEST PUSH2 0xB48 DUP2 PUSH2 0xB35 JUMP JUMPDEST DUP2 EQ PUSH2 0xB53 JUMPI PUSH1 0x0 DUP1 REVERT JUMPDEST POP JUMP JUMPDEST PUSH1 0x0 DUP2 MLOAD SWAP1 POP PUSH2 0xB65 DUP2 PUSH2 0xB3F JUMP JUMPDEST SWAP3 SWAP2 POP POP JUMP JUMPDEST PUSH1 0x0 DUP2 MLOAD SWAP1 POP PUSH2 0xB7A DUP2 PUSH2 0x788 JUMP JUMPDEST SWAP3 SWAP2 POP POP JUMP JUMPDEST PUSH1 0x0 DUP1 PUSH1 0x0 DUP1 PUSH1 0x0 PUSH1 0xA0 DUP7 DUP9 SUB SLT ISZERO PUSH2 0xB9C JUMPI PUSH2 0xB9B PUSH2 0x6CE JUMP JUMPDEST JUMPDEST PUSH1 0x0 PUSH2 0xBAA DUP9 DUP3 DUP10 ADD PUSH2 0xB20 JUMP JUMPDEST SWAP6 POP POP PUSH1 0x20 PUSH2 0xBBB DUP9 DUP3 DUP10 ADD PUSH2 0xB56 JUMP JUMPDEST SWAP5 POP POP PUSH1 0x40 PUSH2 0xBCC DUP9 DUP3 DUP10 ADD PUSH2 0xB6B JUMP JUMPDEST SWAP4 POP POP PUSH1 0x60 PUSH2 0xBDD DUP9 DUP3 DUP10 ADD PUSH2 0xB6B JUMP JUMPDEST SWAP3 POP POP PUSH1 0x80 PUSH2 0xBEE DUP9 DUP3 DUP10 ADD PUSH2 0xB20 JUMP JUMPDEST SWAP2 POP POP SWAP3 SWAP6 POP SWAP3 SWAP6 SWAP1 SWAP4 POP JUMP JUMPDEST PUSH1 0x0 PUSH2 0xC06 DUP3 PUSH2 0xB35 JUMP JUMPDEST SWAP2 POP PUSH2 0xC11 DUP4 PUSH2 0xB35 JUMP JUMPDEST SWAP3 POP DUP3 DUP3 MUL PUSH2 0xC1F DUP2 PUSH2 0xB35 JUMP JUMPDEST SWAP2 POP PUSH32 0x8000000000000000000000000000000000000000000000000000000000000000 DUP5 EQ PUSH1 0x0 DUP5 SLT AND ISZERO PUSH2 0xC57 JUMPI PUSH2 0xC56 PUSH2 0x8F9 JUMP JUMPDEST JUMPDEST DUP3 DUP3 SDIV DUP5 EQ DUP4 ISZERO OR PUSH2 0xC6C JUMPI PUSH2 0xC6B PUSH2 0x8F9 JUMP JUMPDEST JUMPDEST POP SWAP3 SWAP2 POP POP JUMP INVALID LOG2 PUSH5 0x6970667358 0x22 SLT KECCAK256 CALLVALUE 0xC7 MUL 0xA5 0x2C SLOAD 0xF9 DUP5 0xDE 0x2E NUMBER 0xE0 0xCF CREATE DUP15 0xB3 DUP10 0xB8 0xC4 0xA7 LOG2 0xC2 0x27 DUP13 0x4E PUSH11 0x2EFE85950A0364736F6C63 NUMBER STOP ADDMOD GT STOP CALLER "
				},
				"gasEstimates": {
					"creation": {
						"codeDepositCost": "648200",
						"executionCost": "47055",
						"totalCost": "695255"
					},
					"external": {
						"addressToAmountFunded(address)": "2814",
						"fund()": "infinite",
						"funders(uint256)": "5022",
						"minimumUSD()": "2407",
						"owner()": "2536",
						"withdrawFund()": "infinite"
					}
				},
				"methodIdentifiers": {
					"addressToAmountFunded(address)": "3e47d6f3",
					"fund()": "b60d4288",
					"funders(uint256)": "dc0d3dff",
					"minimumUSD()": "3430a88c",
					"owner()": "8da5cb5b",
					"withdrawFund()": "e07fa3c1"
				}
			},
			"storageLayout": {
				"storage": [
					{
						"astId": 56,
						"contract": "Contracts/FundMe.sol:FundME",
						"label": "minimumUSD",
						"offset": 0,
						"slot": "0",
						"type": "t_uint256"
					},
					{
						"astId": 59,
						"contract": "Contracts/FundMe.sol:FundME",
						"label": "funders",
						"offset": 0,
						"slot": "1",
						"type": "t_array(t_address)dyn_storage"
					},
					{
						"astId": 63,
						"contract": "Contracts/FundMe.sol:FundME",
						"label": "addressToAmountFunded",
						"offset": 0,
						"slot": "2",
						"type": "t_mapping(t_address,t_uint256)"
					},
					{
						"astId": 65,
						"contract": "Contracts/FundMe.sol:FundME",
						"label": "owner",
						"offset": 0,
						"slot": "3",
						"type": "t_address"
					}
				],
				"types": {
					"t_address": {
						"encoding": "inplace",
						"label": "address",
						"numberOfBytes": "20"
					},
					"t_array(t_address)dyn_storage": {
						"base": "t_address",
						"encoding": "dynamic_array",
						"label": "address[]",
						"numberOfBytes": "32"
					},
					"t_mapping(t_address,t_uint256)": {
						"encoding": "mapping",
						"key": "t_address",
						"label": "mapping(address => uint256)",
						"numberOfBytes": "32",
						"value": "t_uint256"
					},
					"t_uint256": {
						"encoding": "inplace",
						"label": "uint256",
						"numberOfBytes": "32"
					}
				}
			},
			"userdoc": {
				"kind": "user",
				"methods": {},
				"version": 1
			}
		}
	}
}